:020000040800F2
:10000000000400204701000825020008270200081C
:100010002B0200082F020008330200080000000035
:10002000000000000000000000000000370200088F
:1000300039020008000000003B0200083D020008F1
:1000400067010008670100086701000867010008F0
:1000500067010008670100086701000867010008E0
:1000600067010008670100086701000867010008D0
:1000700067010008670100086701000867010008C0
:1000800067010008670100086701000867010008B0
:1000900067010008670100086701000867010008A0
:1000A0006701000867010008670100086701000890
:1000B0006701000867010008670100086701000880
:1000C0006701000867010008670100086701000870
:1000D0006701000867010008670100086701000860
:1000E0006701000867010008670100086701000850
:1000F0006701000867010008670100086701000840
:10010000670100086701000867010008670100082F
:10011000670100086701000867010008670100081F
:10012000670100086701000867010008670100080F
:10013000DFF80CD000F0E2FE00480047750100082F
:1001400020020020704708488047084981F308884A
:1001500007480047FEE7FEE7FEE7FEE7FEE7FEE7AB
:10016000FEE7FEE7FEE7FEE745010008200200206B
:1001700031010008002400F062FE00F061F800F098
:10018000ABF80CA000F0ECFE00BF0CE072211348AD
:1001900000F0D3FD124908600846016811A000F084
:1001A000DFFE601CC4B2722CF0DB16A000F0D8FE9B
:1001B00000BFFEE70D0A20D5E2CAC7D2BBB8F620C1
:1001C00043524328D1ADBBB7C8DFD3E0D0A3D1E9B8
:1001D00029CAB5D1E9200D0A000000006412000808
:1001E000000000200D0A33322D626974204352430F
:1001F00020D0A3D1E9C2EBCEAA3A305825580D0A37
:10020000000000000D0A43524328D1ADBBB7C8DF40
:10021000D3E0D0A3D1E929B2E2CAD4CDEAB1CF0D5F
:100220000A000000704700BFFEE700BFFEE700BF06
:10023000FEE700BFFEE77047704770477047000059
:1002400000B585B0012144F2040000F046FB4FF4F4
:100250000070ADF8100018208DF8130003208DF801
:10026000120004A91A4800F0A5F84FF48060ADF818
:10027000100004208DF8130004A9154800F09AF826
:100280004FF4E13000900020ADF80400ADF8060016
:10029000ADF80800ADF80C000C20ADF80A00694676
:1002A0000C4800F0CEFB01210A4800F038FC05B0F4
:1002B00000BD70B504460D46E1B2064800F09AFC58
:1002C00000BF0448008810F0800FFAD0204670BDAF
:1002D000000801400038014010B50121402000F025
:1002E000EFFA10BD10B50446C549601A8C422FD0F4
:1002F00009DCC448201810D0B0F5806F16D0B0F5D6
:10030000006F4AD11BE0B0F5806F2AD0B0F5006FC6
:1003100030D0B0F5406F40D135E00121042000F02D
:10032000F6FA0021042000F0F2FA37E0012108205B
:1003300000F0EDFA0021082000F0E9FA2EE001219A
:10034000102000F0E4FA0021102000F0E0FA25E08F
:100350000121202000F0DBFA0021202000F0D7FA54
:100360001CE00121402000F0D2FA0021402000F0E2
:10037000CEFA13E00121802000F0C9FA002180208C
:1003800000F0C5FA0AE00121080200F0C0FA0021DD
:100390004FF4807000F0BBFA00E000BF00BF10BD5A
:1003A00010B50121084600F0B2FA0021012000F04A
:1003B000AEFA10BD2DE9F0410246002500260020CE
:1003C00000230024002791F803C00CF00F0591F8DA
:1003D00003C01CF0100F03D091F802C04CEA0505D1
:1003E000B1F800C01CF0FF0F31D0146800202BE0E2
:1003F0004FF0010C0CFA00F3B1F800C00CEA030650
:100400009E4220D183004FF00F0C0CFA03F7BC433F
:1004100005FA03FC4CEA040491F803C0BCF1280F70
:1004200006D14FF0010C0CFA00FCC2F814C00AE02F
:1004300091F803C0BCF1480F05D14FF0010C0CFA44
:1004400000FCC2F810C0401C0828D1D31460B1F8D9
:1004500000C0BCF1FF0F34DD546800202EE000F135
:10046000080C4FF0010808FA0CF3B1F800C00CEAD0
:1004700003069E4221D183004FF00F0C0CFA03F7C4
:10048000BC4305FA03FC4CEA040491F803C0BCF138
:10049000280F05D100F1080C08FA0CF8C2F81480F6
:1004A00091F803C0BCF1480F07D100F1080C4FF0E0
:1004B000010808FA0CF8C2F81080401C0828CED3B6
:1004C0005460BDE8F0814FF6FF7101800221817018
:1004D0000421C17070470246002093680B4201D08E
:1004E000012000E0002070470146886880B2704714
:1004F00002460020D3680B4201D0012000E000201A
:1005000070470146C86880B2704701617047416119
:1005100070470AB1016100E041617047C1607047F6
:100520004FF480320A43826181618261826982690B
:10053000704702460020344B18684FF6807318400D
:1005400040EA02100843304B186070472F49C861D9
:100550007047F0B50A4600230024002100252A4EEA
:100560007168C0F3034583B200F44016B6F5401F2E
:1005700008D121F07061244E766826F07066224F13
:100580007E6012E000F48016B6F5801F06D10326C7
:1005900006FA05F4A14341F0706106E0460D36010C
:1005A00003FA06F6B14341F0706122B1460D3601FF
:1005B00003FA06F63143144E7160F0BD30B50022E7
:1005C0008B071C0F0F2303FA04F20F4B08338C1018
:1005D00053F8243093430C4C08348D1044F82530E4
:1005E00023468C1053F824308C07240F00FA04F4AF
:1005F0002343054C08348D1044F8253030BD0000ED
:100600000014014000F8FEBF00000140000020423D
:10061000DA48006840F00100D849086008464068A0
:10062000D7490840D549486008460068D549084080
:10063000D24908600846006820F480200860084617
:10064000406820F4FE004860002088607047CB4975
:10065000096821F48031C94A11601146096821F402
:1006600080211160B0F5803F03D0B0F5802F0ED10E
:1006700006E0C249096841F48031C04A116007E0D0
:10068000BE49096841F4A021BC4A116000E000BFE6
:1006900000BF704710B501460022002300204A1118
:1006A000012A02D1B54C236806E0022A02D1B34CDC
:1006B000236A01E0B14C636A01F01F0201249440F7
:1006C0001C4201D0012000E0002010BD70B50024C4
:1006D0000025002600BF3120FFF7DCFF0646641C22
:1006E00016B9B4F5A06FF6D13120FFF7D3FF08B1EA
:1006F000012500E00025284670BD014600209F4AE4
:10070000106820F0F80040EAC100106070479E4970
:100710000860704702460020984B586820F47C100F
:1007200042EA01031843954B5860704796490866A2
:10073000704701460020914A506820F003000843AA
:10074000506070478D48406800F00C0070470146CB
:1007500000208A4A506820F0F0000843506070473B
:1007600001460020854A506820F4E060084350604C
:10077000704701460020814A506820F4605040EAEA
:10078000C1005060704729B17C4A527A02437B4BCA
:100790005A7206E0794A527AC343DBB21A40774B69
:1007A0005A72704779490860704701460020734AC1
:1007B000506820F440400843506070470021744A5C
:1007C00011706E4A82F82010012802D0042808D146
:1007D00003E001216E4A117004E005216C4A11709A
:1007E00000E000BF00BF70476A4908607047634976
:1007F000096A0143614A116270476749086070479E
:1008000030B500210022002400235C4D6D6805F006
:100810000C0121B1042905D0082923D105E05F4D41
:10082000056022E05D4D05601FE0544D6D6805F4E4
:100830007012022505EB9242504D6D6805F480342C
:100840001CB9574D554305600BE04C4D6D6815F4D0
:10085000003F03D0524D5543056002E04F4D5543D4
:10086000056002E04D4D056000BF00BF434D6D685F
:1008700005F0F00109094B4D6B5C0568DD404560F2
:100880003E4D6D6805F4E061090A464D6B5C4568B4
:10089000DD408560394D6D6805F46051C90A414DF0
:1008A0006B5C4568DD40C560344D6D6805F44041C2
:1008B000890B3D4D6B5CC568B5FBF3F5056130BD3B
:1008C00029B12E4A526902432C4B5A6104E02B4A4B
:1008D00052698243294B5A61704729B1274A92696C
:1008E0000243264B9A6104E0244A92698243234BD7
:1008F0009A61704729B1214AD26902431F4BDA61DC
:1009000004E01E4AD26982431C4BDA61704729B168
:100910001A4AD2680243194BDA6004E0174AD268D7
:100920008243164BDA60704729B1144A12690243B8
:10093000124B1A6104E0114A126982430F4B1A618B
:1009400070471A49086070470F49C86470470B49DF
:10095000C87170470948406A40F080700749486292
:10096000704701460020054A92680A4201D00120E2
:1009700000E0002070470149887270470010024073
:100980000000FFF8FFFFF6FE00004242D80042429E
:1009900020100240800442423C04424200127A008D
:1009A00000093D00040000201400002040044242E1
:1009B00010B50446D949601A8C422BD006DCD848C1
:1009C000201813D0B0F5806F38D119E0B0F5806FE2
:1009D0002AD0B0F56C4F31D101218803FFF797FF82
:1009E00000214FF48040FFF792FF28E001214804E6
:1009F000FFF79AFF00214FF40030FFF795FF1EE04C
:100A000001218804FFF790FF00214FF48020FFF7B9
:100A10008BFF14E00121C804FFF786FF00214FF48B
:100A20000020FFF781FF0AE001210805FFF77CFFA6
:100A300000214FF48010FFF777FF00E000BF00BFF8
:100A400010BD2DE9F04786B005460E460024A246AB
:100A500000BF00BF00272F462C8A4CF6FF700440D1
:100A6000F08804432C82AC894EF6F3100440B08821
:100A700031890843718908430443AC81AC8A4FF63D
:100A8000FF400440B0890443AC8201A8FFF7B8FEE0
:100A9000A448874202D1DDF810A001E0DDF80CA0E7
:100AA0000AEBCA0000EB0A1031688900B0FBF1F8CC
:100AB0006420B8FBF0F004012009642101FB1089D7
:100AC000322000EB0910B0FBF1F000F00F000443FE
:100AD0002C8106B0BDE8F0874FF41651016000216B
:100AE0008180C18001810C21418100218181704779
:100AF00010B502460020108A4FF2FF0318400B8801
:100B00004C8823438C882343CC882343184310828A
:100B100010BD0021018041808180C180704721B1DA
:100B2000828942F40052828104E082894DF6FF738B
:100B30001A4082817047F0B5034600240026002544
:100B400000201846C1F3421401F01F06012707FADE
:100B500006F5012C01D10C3004E0022C01D110303B
:100B600000E014301AB107682F43076002E00768FD
:100B7000AF430760F0BD10B51AB1838A0B4383827F
:100B800004E0838ACC43A4B22340838210BD028A4E
:100B90004FF6F0731A400282028A0A4302827047BB
:100BA00082894FF2FF731A40828182890A438281CF
:100BB000704721B1828942F00202828104E0828979
:100BC0004FF6FD731A4082817047028A4FF6DF7339
:100BD0001A400282028A0A430282704721B1028AC5
:100BE00042F48042028204E0028A4BF6FF731A400C
:100BF00002827047C1F308028280704701468888EC
:100C0000C0F308007047818941F00101818170477C
:100C1000028BD2B20283028B42EA01220283704726
:100C2000028B02F47F420283028B0A4302837047E5
:100C300021B1828A42F02002828204E0828A4FF649
:100C4000DF731A408282704721B1828A42F010021B
:100C5000828204E0828A4FF6EF731A4082827047E4
:100C600021B1828A42F00802828204E0828A4FF631
:100C7000F7731A4082827047828A4FF6FB731A40DC
:100C80008282828A0A438282704721B1828A42F03C
:100C90000202828204E0828A4FF6FD731A40828249
:100CA00070470246002013880B4201D0012000E06B
:100CB00000207047CA430280704770B502460B4659
:100CC0000024002100250020C3F3421503F01F017A
:100CD000012606FA01F1012D02D19689314006E084
:100CE000022D02D1168A314001E0968A31401C1251
:100CF000012606FA04F41688344011B10CB1012023
:100D000000E0002070BD10B5002200230A1201246B
:100D10009440A3B2DC43048010BD0000004C0040AE
:100D200000BCFFBF003801400120104988607047B7
:100D300001460E4801600068704710B502460B4638
:100D4000002100BF04E052F82100084C2060491C3B
:100D50009942F8D30548006810BD04480068704700
:100D6000024908717047014800797047003002401D
:100D700000210020434A126842F48032414B1A603D
:100D800000BF404A126802F40030491C10B9B1F5A6
:100D9000A06FF6D13B4A126812F4003F01D0012047
:100DA00000E00020012843D1374A126842F01002C7
:100DB000354B1A601A46126822F003021A601A466E
:100DC000126842F002021A602E4A52682D4B5A6095
:100DD0001A4652685A601A46526842F480625A6053
:100DE0001A46526822F47C125A601A46526842F43B
:100DF000E8125A601A46126842F080721A6000BF08
:100E0000204A126812F0007FFAD01E4A526822F07F
:100E100003021C4B5A601A46526842F002025A60A2
:100E200000BF184A526802F00C02082AF9D101E00A
:100E300000BFFEE7704710B5FFF79AFF10BD10B571
:100E40001048006840F001000E49086008464068FC
:100E50000E4908400B494860084600680C490840A4
:100E6000084908600846006820F4802008600846A9
:100E7000406820F4FE00486000208860FFF7DBFF38
:100E800010BD000000100240002002400000FFF8EA
:100E9000FFFFF6FE2DE9F05F0546002092469B46D7
:100EA00088460646814640241DE02846414647467E
:100EB000224600F044F8B0EB0A0052465B4671EB64
:100EC0000B0110D310461946224600F029F82D1ABE
:100ED00067EB01084F4622460120002100F020F870
:100EE00017EB00094E41201EA4F10104DDDC484649
:100EF00031462A464346BDE8F09F0000064C074DA8
:100F000006E0E06840F0010394E8070098471034D9
:100F1000AC42F6D3FFF710F92C1400084C1400086B
:100F2000202A04DB203A00FA02F1002070479140A9
:100F3000C2F1200320FA03F3194390407047202A9E
:100F400004DB203A21FA02F00021704721FA02F373
:100F5000D040C2F12002914008431946704700007A
:100F60000FB4054B10B503A9044A029800F018F815
:100F700010BC5DF814FB0000B3020008180000204C
:100F800002E008C8121F08C1002AFAD17047704752
:100F9000002001E001C1121F002AFBD170470000B0
:100FA0002DE9FF4F8DB004469B460F4600263BE1DE
:100FB000252801D00F9963E00025641C9E4AA846AD
:100FC00001212378203B01FA03F0104202D00543AF
:100FD000641CF6E720782E2817D114F8010F45F08D
:100FE00004052A280ED06FF02F022078A0F13001DE
:100FF00009290AD808EB880102EB410100EB01083E
:10100000641CF2E757F8048B641C20786C280DD020
:1010100004DC4C2812D06A2811D104E074280DD0C9
:101020007A280CD10AE045F4001507E0617845F410
:101030008015814202D1641C05F58015641C94F86A
:1010400000C0BCF1690F4DD00CDCBCF1000F70D0BA
:10105000BCF1580F6FD0BCF1630F16D0BCF1640F18
:101060000CD13FE0BCF1700F6AD0BCF1730F15D00A
:10107000BCF1750F5BD0BCF1780F5CD00F99604666
:101080005A46904706F10106CDE001CF8DF80000E9
:1010900000208DF80100E946012003E057F8049B89
:1010A0004FF0FF3069074FF0000501D40AE06D1CD6
:1010B00045450DDA8542FADB19F805100029F6D10D
:1010C00006E06D1C8542FCDB19F805100029F8D1FB
:1010D0002E4404E019F8010B5A460F9990476D1EF3
:1010E000F8D2A0E00A200021CDE90801C5F30250A2
:1010F00002280AD001CFC11700290DDA0023D0EB56
:10110000030063EB01012D2209E007F1070727F037
:101110000707F7E80201EFE72A0504D52B228DF82F
:101120002820012230E0EA072ED02022F7E70A200B
:1011300002E07DE0FFE710200021CDE9080107E093
:101140001020002145F00405CDE908014FF0080802
:10115000C5F30250022821D001CF00214FF0000A30
:101160002A0712D5BCF1700F1ED0DDE9083283F0DA
:101170001003134309D150EA010206D030228DF842
:1011800028208DF829C0022292462CA2BCF1580FCB
:1011900000D02FA20DF120090B920FE0FF1D27F0C8
:1011A0000707F7E80201D9E74022B8E7DDE908239D
:1011B000FFF770FE0B9B9B5C09F8013D50EA0102B2
:1011C000F4D1ADEB090000F120000890680701D4CC
:1011D0004FF00108089A0020904501DDA8EB0200BD
:1011E0008046002506E00AA85A46405D0F999047C0
:1011F000761C6D1C5545F6DB04E030205A460F99ED
:101200009047761CB8F10001A8F10108F5DC05E073
:1012100019F8010B5A460F999047761C0899481EF9
:1012200008900029F4DC641C207800287FF4C0AE0C
:1012300011B03046BDE8F08F09280100303132335B
:1012400034353637383941424344454600000000C2
:10125000303132333435363738396162636465662C
:10126000000000002110000063304220A55084409F
:10127000E770C6604AA129918CC16BB1CEE1ADD1B6
:101280003112EFF1522273329442B552D662F772A4
:1012900018833993BDD35AA3FFF39CC36224DEE3C2
:1012A00020044334C774E6648554A4444BB56AA54E
:1012B00009952885ACC5CFF553368DD51116722604
:1012C000D7763006B44695567AA75BB73887199714
:1012D000FEE7DFF7C448BCC78668E5584008A77832
:1012E00002286118EDD9CCC9AFF98EE9699948890E
:1012F0002BB90AA9B77AD44A711A966A333A500AB6
:10130000FDDB122A9EEBBFFB588B799B1AAB3BBBD4
:10131000877CA66C222CC55C600C033CAEED411CA6
:10132000ECCD8FFD0BBD2AAD499D688DB66E977EC5
:10133000F44ED55E511E322E9FFF700EDDDFBEEFE4
:101340001BBFFCCF788F599FA9818891EBA1CAB1AF
:101350002DC10CD180106FE1C230A1000450E320F8
:10136000467025409893B983DAB3FBA31CD33DC3E1
:101370005EF37FE3F32290123542D2327762145249
:10138000EAB556728985A8954FE56EF50DC52CD541
:10139000C324E2346674810424544764DBA7054403
:1013A0009987FAB77EF75FE73CD71DC7F236D32699
:1013B000B0169106154676764CD934560EF96DC99D
:1013C000C8992FE9ABA98AB96548445827680678B7
:1013D000E108C0187DCBA3283FEB5CDBF98B1EFB3B
:1013E000BBABD89B545A754A167A376AD01AF10AA1
:1013F000923AB32A6CDD0FEDAABD4DCDE89D8BADC1
:10140000267CC98D454C645C832CA23CC10CE01C3D
:101410003EFF1FEF9BAF7CDFD98FBABF176EF89FDF
:10142000554E367EB23E932EF01ED10E4C1400085F
:10143000000000201C000000800F00086814000855
:101440001C00002004020000900F000800000000B3
:10145000000000000102030401020304060708095A
:08146000020406080000000070
:0400000508000147A7
:00000001FF
