:020000040800F2
:1000000000040020CF010008B9030008BB0300086A
:10001000BF030008C3030008C70300080000000076
:10002000000000000000000000000000CB030008FA
:10003000CD03000800000000CF030008D103000832
:10004000EF010008EF010008EF010008EF010008D0
:10005000EF010008EF010008EF010008EF010008C0
:10006000EF010008EF010008EF010008EF010008B0
:10007000EF010008EF010008EF010008EF010008A0
:10008000EF010008EF010008EF010008EF01000890
:10009000EF010008EF010008EF010008EF01000880
:1000A000EF010008EF010008EF010008EF01000870
:1000B000EF010008EF010008EF010008EF01000860
:1000C000EF010008EF010008EF010008EF01000850
:1000D000EF010008EF010008EF010008EF01000840
:1000E000EF010008EF010008EF010008EF01000830
:1000F000EF010008EF010008EF010008EF01000820
:10010000EF010008EF010008EF010008EF0100080F
:10011000EF010008EF010008EF010008EF010008FF
:10012000EF010008EF010008EF010008EF010008EF
:1001300000F002F800F03AF80AA090E8000C8244BF
:100140008344AAF10107DA4501D100F02FF8AFF29C
:10015000090EBAE80F0013F0010F18BFFB1A43F0A5
:1001600001031847B0160000D0160000103A24BF53
:1001700078C878C1FAD8520724BF30C830C144BF0C
:1001800004680C607047000000230024002500264E
:10019000103A28BF78C1FBD8520728BF30C148BFEA
:1001A0000B6070471FB51FBD10B510BD01F0FBFA05
:1001B0001146FFF7F7FF00F02DF801F019FB03B42B
:1001C000FFF7F2FF03BC01F01DFB000070470B4876
:1001D00080470B4981F308880A480047FEE7FEE79D
:1001E000FEE7FEE7FEE7FEE7FEE7FEE7FEE7FEE7E7
:1001F00005480649044A064B70470000CD01000837
:1002000078020020310100087800002078020020E8
:100210007800002010B501F098FA00F07CF800F0AA
:1002200097F8002010BD000008B50121C80201F0B8
:10023000B3F901210C2001F0AFF94FF44040ADF8C3
:10024000000018208DF8030003208DF80200694695
:10025000574800F00BFF08BD30B587B04CF2503561
:100260002C462046ADF814000020ADF81000ADF883
:100270001600ADF8120004A94E4800F016F97020DF
:10028000ADF800000120ADF802000420ADF8040034
:10029000ADF806500220ADF808000820ADF80A00BD
:1002A0004001ADF80C000020ADF80E006946414851
:1002B00000F04BF908213F4800F0B7FC7020ADF882
:1002C00000000120ADF802000420ADF80400ADF8F4
:1002D00006400220ADF808000820ADF80A004001F1
:1002E000ADF80C000020ADF80E006946314800F072
:1002F00076F908212F4800F0A5FC01212D4800F0D7
:100300005BFC01212B4800F056FB0121294800F03D
:100310005EFB07B030BD10B5FFF786FFFFF79CFF0F
:1003200010BD002106E0002101E04A1CD1B20229E3
:10033000FBDB401E0028F6D1704700B5034604E001
:100340004FF47A70FFF7EDFF5B1E002BF8D100BD74
:100350004FF47A7400252AE000250CE01548383067
:100360000480001D04800120FFF7E7FF04F10A006C
:1003700084B2681C85B241F288308542EEDB4CF2D3
:10038000503400250CE00B4838300480001D0480F8
:100390000220FFF7D2FFA4F1640084B2681C85B28A
:1003A000B5F5FA7FEFDB4FF47A70FFF7C6FFD3E7BE
:1003B000000C0140002C0140704700BFFEE700BF69
:1003C000FEE700BFFEE700BFFEE7704770477047DB
:1003D0007047000010B50446F749601A8C4245D0BA
:1003E0000CDCB4F1804F1DD0F448201823D0B0F5B8
:1003F000806F29D0B0F5006F54D12EE0B0F5806F3A
:100400003DD0B0F58E3F03D0B0F5923F4AD13FE0EA
:100410000121C80201F0DAF800214FF4006001F078
:10042000D5F840E00121084601F0DDF80021012067
:1004300001F0D9F837E00121022001F0D4F80021C1
:10044000022001F0D0F82EE00121042001F0CBF8C9
:100450000021042001F0C7F825E00121082001F067
:10046000C2F80021082001F0BEF81CE00121102094
:1004700001F0B9F80021102001F0B5F813E00121D6
:10048000202001F0B0F80021202001F0ACF80AE0B3
:100490000121480301F09AF800214FF4005001F0C7
:1004A00095F800E000BF00BF10BD028802F08F0287
:1004B0000280CA884B881A4303881A4302808A88BC
:1004C00082850A880285BE4A904202D0BD4A904287
:1004D00001D10A7A028601228282704770B5002417
:1004E00000220023058C4FF6FE7635400584028CF1
:1004F0008388048B4FF68F752C400D882C43751E16
:100500002A400D892A434D882A43CD888586AC4DE3
:10051000A84202D0AB4DA84213D14FF6F7752A403E
:100520004D892A434FF6FB752A408D882A4347F6AA
:10053000FF652B4047F6FF552B408D892B43CD8916
:100540002B4383800483028470BD70B50024002295
:100550000023058C4FF6EF7635400584028C8388A6
:10056000048B48F6FF752C400D884FF6FF7606EA9F
:1005700005252C434FF6DF752A400D8906EA05153F
:100580002A434D8806EA05152A43CD8805878C4DF8
:10059000A84202D08B4DA8421DD14FF67F752A404C
:1005A0004D894FF6FF7606EA05152A434FF6BF75CB
:1005B0002A408D8806EA05152A4347F6FF352B4069
:1005C00047F2FF752B408D8906EA85052B43CD89BF
:1005D00006EA85052B4383800483028470BD70B5D1
:1005E000002400220023058C4FF6FF663540058469
:1005F000028C8388848B4FF68F752C400D882C439A
:100600004FF6FF552A400D894FF6FF7606EA05257D
:100610002A434D8806EA05252A43CD888587684DFB
:10062000A84202D0674DA8421DD14FF2FF752A4063
:100630004D894FF6FF7606EA05252A434FF6FF352A
:100640002A408D8806EA05252A4346F6FF752B4089
:1006500045F6FF752B408D8906EA05152B43CD899C
:1006600006EA05152B4383808483028470BD70B530
:10067000002400220023058C4EF6FF7635400584C9
:10068000028C8388848B48F6FF752C400D884FF6CA
:10069000FF7606EA05252C434DF6FF752A400D89A5
:1006A00006EA05352A434D8806EA05352A43CD88F2
:1006B000A0F84050424DA84202D0424DA84207D176
:1006C000C3F30D038D894FF6FF7606EA85152B439C
:1006D00083808483028470BD828B4FF2FF331A4083
:1006E0008283828B4FF6FF7303EA01231A438283CE
:1006F0007047F0B50C461546002100220026078CF5
:100700004EF6FF7C07EA0C070784818B028C4FF6BC
:10071000FF7707EA043640F6FF4739404FF6FF7788
:1007200007EA05274FF6FF7C0CEA033C47EA0C0773
:1007300039434DF6FF773A4046F480573A43818378
:100740000284F0BD828B4FF6F3731A408283828B52
:100750000A4382837047F0B50C46154600210022FB
:100760000026078C4FF6FF6C07EA0C070784818B85
:10077000028C4FF6FF7707EA04264FF60C773940D4
:100780004FF6FF7707EA03172F4339434FF6FF571A
:100790003A4046F480773A4381830284F0BD028B6D
:1007A0004FF2FF331A400283028B4FF6FF7303EAC6
:1007B00001231A43028370470010004000FCFFBF72
:1007C000002C014000340140F0B50C4615460021D4
:1007D00000220026078C4FF6EF7C07EA0C070784FF
:1007E000018B028C4FF6FF7707EA041640F6FF47AD
:1007F00039404FF6FF7707EA033739434FF6FF7763
:1008000007EA052739434FF6DF773A4046F01007ED
:100810003A4301830284F0BD028B4FF6F3731A4012
:100820000283028B0A4302837047F0B50C461546DB
:1008300000210022068C4FF6FE773E400684018B95
:10084000028C4FF60C7631407E1C06EA03162E43CE
:1008500031437E1E324044F001063243018302845C
:10086000F0BD70B505460C46208850B92389A28892
:1008700061882846FFF7D9FFE1882846FFF7CCFFBB
:1008800025E0208804280AD12389A2886188284687
:10089000FFF79AFFE1882846FFF781FF17E02088DD
:1008A00008280AD12389A28861882846FFF753FFC8
:1008B000E1882846FFF746FF09E02389A28861887E
:1008C0002846FFF716FFE1882846FFF705FF70BDB1
:1008D0002DE9F04105460C4600260127608808B93D
:1008E000022600E00026A088012801D1022700E0AE
:1008F00001272088A0B92389A28861882846FFF7AC
:1009000094FFE1882846FFF787FF23893A4631465E
:100910002846FFF759FFE1882846FFF740FF13E01C
:100920002389A28861882846FFF74EFFE188284680
:10093000FFF735FF23893A4631462846FFF775FF12
:10094000E1882846FFF768FFBDE8F0810A884B88F8
:100950001A438B881A43CB881A430B891A434B8955
:100960001A438B891A43A0F8442070474FF6FF7151
:10097000818000210180C180418001727047002187
:10098000018041808180C180018141818181C1815B
:100990007047002101804180012181800021C180B8
:1009A000018170470021018041808180C1800181E7
:1009B00041818181704721B1028842F001020280A9
:1009C00004E0028840F2FE331A400280704731B1E1
:1009D000B0F8442042F40042A0F8442005E0B0F80A
:1009E0004420C2F30E02A0F8442070471AB1838954
:1009F0000B43838102E083898B438381704781822B
:100A0000704741EA0203A0F8483070471AB1838961
:100A10000B43838102E083898B4383817047018983
:100A20004FF6F8721140018170470A460021018992
:100A30004FF68F73194011430181704730B504465A
:100A40000D4629462046FFF7F0FF208940F00700B9
:100A5000208130BD2DE9F04104460D4616461F4663
:100A6000602D06D13B46012231462046FFF7ACFE01
:100A700005E03B46012231462046FFF7D6FE2946D7
:100A80002046FFF7D2FF208940F007002081BDE813
:100A9000F08170B50C4600210189C9B244EA020513
:100AA0004FF6FF7606EA032635432943018170BDE0
:100AB0002DE9F04105460E46174698460024434668
:100AC0003A4631462846FFF7E4FF2C894FF6F87086
:100AD000044044F007044FF68F70044044F0700463
:100AE0002C81BDE8F081F0B504460D4616461F4640
:100AF0003B46324629462046FFF7CBFF208940F48B
:100B000080402081F0BD0185828270470A46002125
:100B1000018840F28F331940114301807047F0B5CE
:100B20000C4615461E460021002200230189028B37
:100B3000038C4FF6F877394021434FF6FC473A4093
:100B400040F201173A434FF6DD773B404FF6FF770F
:100B500007EA06172F433B43018102830384F0BD5C
:100B60000A460021018B4FF68F7319401143018310
:100B700070470A460021018B48F6FF7319404FF673
:100B8000FF7303EA02231943018370470A460021D9
:100B9000818B4FF68F7319401143818370470A464A
:100BA0000021818B48F6FF7319404FF6FF7303EA6B
:100BB000022319438183704721B1028842F08002E9
:100BC000028004E0028840F27F331A4002807047BE
:100BD00021B1828842F00402828004E082884FF6CC
:100BE000FB731A408280704721B1828842F008026C
:100BF000828004E082884FF6F7731A408280704743
:100C000021B1828842F00102828004E082884FF69E
:100C1000FE731A40828070470A460021018B4FF60E
:100C2000F77319401143018370470A460021018B75
:100C30004FF2FF7319404FF6FF7303EA0223194383
:100C4000018370470A460021818B4FF6F7731940E4
:100C50001143818370470A460021818B4FF2FF7355
:100C600019404FF6FF7303EA02231943818370474B
:100C70000A460021018B4FF6FB7319401143018393
:100C800070470A460021018B4FF6FF3319404FF69B
:100C9000FF7303EA02231943018370470A460021C8
:100CA000818B4FF6FB7319401143818370470A46CD
:100CB0000021818B4FF6FF3319404FF6FF7303EA93
:100CC00002231943818370470A460021018B4FF6A6
:100CD0007F7319401143018370470A460021018B3D
:100CE000C1F30E014FF6FF7303EA02231943018398
:100CF00070470A460021818B4FF67F7319401143DC
:100D0000818370470A460021818BC1F30E014FF6A3
:100D1000FF7303EA02231943818370470A460021C7
:100D2000018C4FF6FD7319401143018470470A4648
:100D30000021018C4FF6F77319401143018470476D
:100D40000A460021018C4FF6DF7319404FF6FF73FE
:100D500003EA02131943018470470A460021018CFB
:100D60004FF67F7319404FF6FF7303EA02131943DE
:100D7000018470470A460021018C4FF6FF53194049
:100D80004FF6FF7303EA02231943018470470A46B2
:100D90000021018C4FF2FF7319404FF6FF7303EAF5
:100DA00002231943018470470A460021018C4DF645
:100DB000FF7319404FF6FF7303EA023319430184AE
:100DC000704710B5038C01248C40A3430384038C2B
:100DD00002FA01F4A4B22343038410BD10B5038CBE
:100DE00004248C40A3430384038C02FA01F4A4B2CC
:100DF0002343038410BD30B5038C01248C40A343EE
:100E0000038409B1082918D100F1180303EB610329
:100E10001B684FF68F74234000F1180404EB610443
:100E2000236000F1180303EB61031B68134300F117
:100E3000180404EB610423601FE00B1FC3F34E048E
:100E400000F118031B5948F6FF7423400C1FC4F32C
:100E50004E0500F1180463510B1FC3F34E0400F15B
:100E600018031B594FF6FF7404EA022423430C1F96
:100E7000C4F34E0500F11804635130BD21B102885E
:100E800042F00202028004E0028840F2FD331A4080
:100E90000280704721B1028842F00402028004E01F
:100EA000028840F2FB331A400280704721B18288E9
:100EB00042F08002828004E082884FF67F731A40FD
:100EC00082807047028840F2F7331A40028002881D
:100ED0000A430280704782884FF68F731A408280DF
:100EE00082880A438280704702894FF6F8731A405D
:100EF000028102890A430281704702894FF67F739B
:100F00001A40028102890A43028170478184704736
:100F10008185704781867047018770478187704758
:100F2000A0F8401070470288D2B2028002880A43BB
:100F3000028070470146888E70470146088F7047CF
:100F40000146888F70470146B1F84000704701465E
:100F5000888C70470146088D704702460020138A2E
:100F60000B4201D0012000E000207047CA430282FA
:100F7000704730B50246002000230024158A05EA98
:100F80000103958905EA010413B10CB1012000E0C9
:100F9000002030BDCA4302827047000010B50446ED
:100FA000C549601A8C422FD009DCC448201810D0E3
:100FB000B0F5806F16D0B0F5006F4AD11BE0B0F5E8
:100FC000806F2AD0B0F5006F30D0B0F5406F40D1BF
:100FD00035E00121042000F0F9FA0021042000F09E
:100FE000F5FA37E00121082000F0F0FA002108208E
:100FF00000F0ECFA2EE00121102000F0E7FA0021C9
:10100000102000F0E3FA25E00121202000F0DEFAB4
:101010000021202000F0DAFA1CE00121402000F03D
:10102000D5FA0021402000F0D1FA13E00121802000
:1010300000F0CCFA0021802000F0C8FA0AE001217B
:10104000080200F0C3FA00214FF4807000F0BEFAED
:1010500000E000BF00BF10BD10B50121084600F040
:10106000B5FA0021012000F0B1FA10BD2DE9F041E0
:10107000024600250026002000230024002791F8C6
:1010800003C00CF00F0591F803C01CF0100F03D043
:1010900091F802C04CEA050591F800C0BCF1000FC0
:1010A00031D0146800202BE04FF0010C0CFA00F353
:1010B000B1F800C00CEA03069E4220D183004FF035
:1010C0000F0C0CFA03F7BC4305FA03FC4CEA0404CA
:1010D00091F803C0BCF1280F06D14FF0010C0CFAB7
:1010E00000FCC2F814C00AE091F803C0BCF1480F3C
:1010F00005D14FF0010C0CFA00FCC2F810C0401CE6
:101100000828D1D31460B1F800C0BCF1FF0F34DD62
:10111000546800202EE000F1080C4FF0010808FA96
:101120000CF3B1F800C00CEA03069E4221D1830003
:101130004FF00F0C0CFA03F7BC4305FA03FC4CEA22
:10114000040491F803C0BCF1280F05D100F1080C8C
:1011500008FA0CF8C2F8148091F803C0BCF1480FEB
:1011600007D100F1080C4FF0010808FA0CF8C2F89A
:101170001080401C0828CED35460BDE8F0814FF6A3
:10118000FF710180022181700421C1707047024605
:10119000002093680B4201D0012000E0002070473E
:1011A0000146886880B2704702460020D3680B422F
:1011B00001D0012000E0002070470146C86880B2DD
:1011C000704701617047416170470AB1016100E0F9
:1011D00041617047C16070474FF480320A438261B9
:1011E0008161826182698269704702460020344BC6
:1011F00018684FF68073184040EA02100843304BDD
:10120000186070472F49C8617047F0B50A4600233F
:101210000024002100252A4E7168C0F3034583B2E3
:1012200000F44016B6F5401F08D121F07061244E3D
:10123000766826F07066224F7E6012E000F4801619
:10124000B6F5801F06D1032606FA05F4A14341F046
:10125000706106E0460D360103FA06F6B14341F02F
:10126000706122B1460D360103FA06F63143144E81
:101270007160F0BD30B500228B071C0F0F2303FAFD
:1012800004F20F4B08338C1053F8243093430C4C6A
:1012900008348D1044F8253023468C1053F8243040
:1012A0008C07240F00FA04F42343054C08348D10F6
:1012B00044F8253030BD00000014014000F8FEBFA6
:1012C0000000014000002042DC48006840F00100BE
:1012D000DA49086008464068D9490840D74948605B
:1012E00008460068D7490840D449086008460068A5
:1012F00020F4802008600846406820F4FE00486022
:10130000002088607047CD49096821F48031CB4ABC
:1013100011601146096821F480211160B0F5803F09
:1013200003D0B0F5802F0ED106E0C449096841F41E
:101330008031C24A116007E0C049096841F4A02128
:10134000BE4A116000E000BF00BF704710B5014603
:101350000022002300204A11012A02D1B74C236841
:1013600006E0022A02D1B54C236A01E0B34C636A5D
:1013700001F01F02012494401C4201D0012000E032
:10138000002010BD38B5002000900024002500BFCB
:101390003120FFF7DBFF05460098401C00901DB987
:1013A0000098B0F5A06FF3D13120FFF7CFFF08B15F
:1013B000012400E00024204638BD014600209F4A59
:1013C000106820F0F80040EAC100106070479E49A4
:1013D0000860704702460020984B586820F47C1043
:1013E00042EA01031843954B5860704796490866D6
:1013F000704701460020914A506820F003000843DE
:10140000506070478D48406800F00C0070470146FE
:1014100000208A4A506820F0F0000843506070476E
:1014200001460020854A506820F4E060084350607F
:10143000704701460020814A506820F4605040EA1D
:10144000C1005060704729B17C4A527A02437B4BFD
:101450005A7204E0794A527A8243784B5A72704742
:101460007A490860704701460020744A506820F4A9
:1014700040400843506070470021754A11706F4A20
:1014800082F82010012802D0042808D103E00121AD
:101490006F4A117004E005216D4A117000E000BF31
:1014A00000BF70476B49086070476449096A01438F
:1014B000624A11627047674944390860704730B525
:1014C00000210022002400235C4D6D6805F00C0112
:1014D00021B1042905D0082923D105E05E4D05601E
:1014E00022E05D4D05601FE0544D6D6805F47012FB
:1014F000022505EB9242514D6D6805F480341CB90C
:10150000564D554305600BE04C4D6D6815F4003F9A
:1015100003D0524D5543056002E04F4D55430560E1
:1015200002E04D4D056000BF00BF444D6D6805F001
:10153000F00109094A4D6B5C0568DD4045603F4D8F
:101540006D6805F4E061090A454D6B5C4568DD4056
:1015500085603A4D6D6805F46051C90A404D6B5C79
:101560004568DD40C560354D6D6805F44041890B27
:101570003C4D6B5CC568B5FBF3F5056130BD29B129
:101580002E4A526902432D4B5A6104E02B4A52699C
:1015900082432A4B5A61704729B1284A9269024313
:1015A000264B9A6104E0254A92698243234B9A6153
:1015B000704729B1214AD2690243204BDA6104E025
:1015C0001E4AD26982431D4BDA61704729B11B4A1A
:1015D000D2680243194BDA6004E0184AD2688243A9
:1015E000164BDA60704729B1144A12690243134B53
:1015F0001A6104E0114A12698243104B1A61704764
:1016000014494039086070470F49C86470470B4956
:10161000C87170470948406A40F0807007494862C5
:10162000704701460020054A92680A4201D0012015
:1016300000E00020704701498872704700100240A6
:101640000000FFF8FFFFF6FE00004242D8004242D1
:10165000201002408004424200127A0000093D003E
:1016600000000020100000200CB500200190009028
:101670004748006840F480304549086000BF44484E
:10168000006800F4003000900198401C0190009820
:1016900018B90198B0F5A06FF1D13D48006810F479
:1016A000003F02D00120009001E00020009000984F
:1016B000012843D13748006840F0100035490860E0
:1016C0000846006820F0030008600846006840F003
:1016D000020008602E4840682D494860084640686E
:1016E00048600846406840F48060486008464068AA
:1016F00020F47C1048600846406840F4E8104860D8
:101700000846006840F08070086000BF204800680C
:1017100010F0007FFAD01E48406820F003001C49FA
:1017200048600846406840F00200486000BF184822
:10173000406800F00C000828F9D101E000BFFEE786
:101740000CBD10B5FFF790FF10BD10B51048006834
:1017500040F001000E490860084640680E49084004
:101760000B494860084600680C4908400849086071
:101770000846006820F4802008600846406820F48D
:10178000FE00486000208860FFF7DBFF10BD00000E
:1017900000100240002002400000FFF8FFFFF6FEAC
:1017A000704770477047754600F028F8AE46050050
:1017B0006946534620F00700854618B020B5FEF76D
:1017C00017FDBDE820404FF000064FF000074FF036
:1017D00000084FF0000B21F00701AC46ACE8C0094F
:1017E000ACE8C009ACE8C009ACE8C0098D46704758
:1017F0000446AFF300802046FEF7E1FC0048704746
:101800001400002001491820ABBEFEE726000200AC
:101810007047000034180008000000201400000089
:101820006C01000848180008140000206402000041
:101830008801000800000000010203040102030403
:0818400006070809020406086E
:0400000508000131BD
:00000001FF
