:020000040800F2
:100000000004002047010008C5010008C7010008DE
:10001000C9010008CB010008CD0100080000000064
:10002000000000000000000000000000CF010008F8
:10003000D1010008000000009B280008D50100083D
:1000400067010008670100086701000867010008F0
:1000500067010008670100086701000867010008E0
:1000600067010008670100086701000867010008D0
:1000700067010008670100086701000867010008C0
:1000800067010008670100086701000867010008B0
:1000900067010008670100086701000867010008A0
:1000A0006701000867010008670100086701000890
:1000B0006701000867010008670100086701000880
:1000C0006701000867010008670100086701000870
:1000D00067010008CF1500086701000867010008E4
:1000E0006701000867010008670100086701000850
:1000F0006701000867010008670100086701000840
:10010000670100086701000867010008670100082F
:10011000670100086701000867010008670100081F
:10012000670100086701000867010008670100080F
:10013000DFF80CD002F048FC0048004775010008C9
:10014000A0170020704708488047084981F30888B5
:1001500007480047FEE7FEE7FEE7FEE7FEE7FEE7AB
:10016000FEE7FEE7FEE7FEE745010008A0170020D6
:100170003101000810B500F0E1FC01F0AEFC0423F1
:100180000A4A00210A4801F0C3FF0523094A002159
:10019000094801F0BDFF0623084A0021084801F084
:1001A000B7FF01F0AAFD002010BD0000B80100203B
:1001B0000D160008F80200208716000838040020F9
:1001C000571700087047FEE7FEE7FEE7FEE77047B7
:1001D0007047704710B501F010FD01F0D3FDBDE888
:1001E000104001F014BD0000894A10B5811A1315A2
:1001F000D41490422ED00DDC864940181CD0984271
:1002000021D0A0423BD10121102000F025FA00218D
:1002100010200DE0994224D0A14229D0B1F5406FC1
:100220002DD101210C02204600F016FA00212046B3
:10023000BDE8104000F010BA0121042000F00CFAD3
:1002400000210420F4E70121082000F005FA002134
:100250000820EDE70121202000F0FEF900212020F8
:10026000E6E70121402000F0F7F900214020DFE718
:100270000121802000F0F0F900218020D8E710BD96
:1002800010B50121084600F0E7F90021BDE8104053
:10029000012000F0E1B9F0B5CC78002204F00F03A2
:1002A000E40601D58C7823430C784FF00F0C14F042
:1002B000FF0F4FF0010E1BD005680E880EFA02F4F6
:1002C0002640A64210D196000CFA06F725EA070749
:1002D00003FA06F5CE783D43282E02D0482E02D0F0
:1002E00002E0446100E00461521C082AE5D3056085
:1002F0000A88FF2A1CD94468002202F108060EFA77
:1003000006F50E882E40AE420ED196000CFA06F786
:10031000BC4303FA06F7CE783C43282E00D1456152
:10032000CE78482E00D10561521C082AE5D34460DE
:10033000F0BD4FF6FF710180022181700421C17070
:1003400070470246002092680A4200D001207047A0
:10035000806880B2704702460020D2680A4200D00E
:1003600001207047C06880B27047016170474161E9
:1003700070470AB10161704741617047C1607047C1
:1003800041F4803282618161826181698069704754
:10039000214B10B51A684FF68074224042EA0010D3
:1003A0000843186010BD1D49C8617047F0B51A4D6B
:1003B0006B68440D260184B2C0F30157B440C0F30A
:1003C0000342032F05D0C0020AD503209040834387
:1003D00007E0686823F0706220F07060686002E0F7
:1003E000A34343F0706201B122436A60F0BD10B5CF
:1003F0008A0721F003040849120F21440F238C6857
:1004000093409C438C608B68904003438B6010BD8D
:100410000014014000F8FEBF00000140000020422F
:10042000A448016841F0010101604168A24A1140FD
:1004300041600168A14A11400160016821F48021F6
:100440000160416821F4FE01416000218160704734
:1004500098490A6822F480320A600A6822F48022ED
:100460000A60B0F5803F07D0B0F5802F03D108684F
:1004700040F4A02008607047086840F48030F9E735
:100480000346002059098B4A01290AD002290AD0C3
:10049000516A03F01F02012393400B4200D0012058
:1004A00070471168F5E7116AF3E718B500204FF4BB
:1004B000A06400903120FFF7E3FF0099491C0091F0
:1004C00008B9A142F6D13120FFF7DAFF002800D0A9
:1004D000012018BD774A116821F0F80141EAC000F7
:1004E00010607047764908607047724B5A6808433D
:1004F00022F47C12104358607047714908667047B7
:100500006C4A516821F0030101435160704769480A
:10051000406800F00C007047664A516821F0F00115
:10052000014351607047634A516821F4E06101431F
:10053000516070475F4A516821F4605141EAC00040
:10054000506070475B4A0029517A01D0014300E0B6
:100550008143517270475A49C1F8D8007047554AD3
:10056000516821F4404101435160704751490022D4
:1005700081F8202081F82020012802D0042802D10F
:10058000052081F8200070474E49086070474949AE
:100590000A6A02430A6270474A4944390860704750
:1005A00030B5444A5168484B11F00C0103D004297E
:1005B00001D0082901D0036011E05168022301F441
:1005C000701103EB9141536813F4803F02D05368DC
:1005D0009B0301D53D4B00E03B4B59430160516803
:1005E0000F2303EA11113A4B5C5C0168E140416062
:1005F0005468072505EA14241C5D21FA04F484607C
:10060000546805EAD4241B5DD940C16052680323B5
:1006100003EA92322E4B1B1F9A5CB1FBF2F101618F
:1006200030BD244A0029516901D0014300E08143D3
:10063000516170471F4A0029916901D0014300E0D0
:100640008143916170471B4A0029D16901D0014360
:1006500000E08143D1617047164A0029D16801D07A
:10066000014300E08143D1607047124A00291169BB
:1006700001D0014300E081431161704711494039C5
:10068000086070470E49C86470470A49C8717047CE
:100690000848416A41F0807141627047054A01464D
:1006A000002092680A4200D00120704701498872F8
:1006B00070470000001002400000FFF8FFFFF6FE48
:1006C000000042428004424200127A0000093D00CC
:1006D00004000020B24A10B5811A131590421BD0B5
:1006E00007DCB049401814D0984223D101218C0472
:1006F00017E0994213D0B1F56C4F1BD101218C0347
:100700002046FFF7A9FF2046BDE810400021FFF773
:10071000A3BF01214C0404E00121CC0401E001212C
:100720000C052046FFF7A1FF2046BDE81040002140
:10073000FFF79BBF10BD30B50446008A85B00D465B
:100740004CF6FF710840E98801432182A0894EF6EA
:10075000F3110840A9882A8911436A890243114389
:10076000A181A08A4FF6FF410840A9890143A182D7
:100770006846FFF715FF8C48844201D1039800E0DA
:100780000298642200EBC00101EB001029686FF0B1
:1007900018058900B0FBF1F0B0FBF2F109010B097B
:1007A0006B4300EB8300322303EB0010B0FBF2F04D
:1007B00000F00F000843208105B030BD4FF4165102
:1007C000016000218180C18001810C2242818181F0
:1007D000704710B5028A4FF2FF031A400B884C880D
:1007E00023438C88C9880C4323431343038210BDE1
:1007F0000021018041808180C1807047002981896A
:1008000002D041F4005101E021F400518181704790
:1008100010B5C1F3421301F01F040121A140012BC7
:1008200007D0022B07D01430002A026805D00A43F3
:1008300004E00C30F8E71030F6E78A43026010BDA0
:10084000002A828A01D00A4300E08A4382827047EC
:10085000028A22F00F020282028A0A430282704751
:10086000828922F40062828182890A4382817047F0
:100870000029818902D041F0020101E021F002014A
:1008800081817047028A22F020020282028A0A4392
:10089000028270470029018A02D041F4804101E0C0
:1008A00021F4804101827047C1F3080181807047C3
:1008B0008088C0F308007047818941F0010181817F
:1008C0007047028BD2B20283028B42EA012101837C
:1008D0007047028B02F47F420283028B0A43028339
:1008E00070470029818A02D041F0200101E021F007
:1008F0002001818270470029818A02D041F01001D5
:1009000001E021F01001818270470029818A02D024
:1009100041F0080101E021F0080181827047828ADC
:1009200022F004028282828A0A438282704700296E
:10093000818A02D041F0020101E021F002018182AE
:1009400070470246002012880A4200D001207047FA
:10095000C9430180704770B501F01F0501260024CE
:10096000C1F3421306FA05F2012B0FD0022B0FD070
:10097000838A4FEA11210088134206FA01F600EA41
:10098000060001D000B10124204670BD8389F0E744
:10099000038AEEE70A0A01219140C94301807047AA
:1009A000004C004000BCFFBF00380140284908430C
:1009B00028490860704730B50F23C27801780125B7
:1009C000F2B1244A126801F1E02102F4E062C2F5BA
:1009D000E062120AC2F10404D3404278A240847853
:1009E0001C401443220181F80024007800F01F010C
:1009F0008D404009800000F1E020C0F8005130BD7A
:100A000001F01F0085404809800000F1E020C0F897
:100A1000805130BD104A114001430E48001F016053
:100A200070470C4A121D0029116801D0014300E0F3
:100A30008143116070474FF0E0210428086903D01A
:100A400020F004000861704740F00400FAE700005D
:100A50000000FA050CED00E080FFFF1F0CB500223E
:100A6000324800920192016841F4803101604FF4F4
:100A7000A063016801F4003101910099491C0091C3
:100A8000019911B900999942F3D10168890333D5CD
:100A90000121019126490A6842F010020A600A68A1
:100AA00022F003020A600A6842F002020A6041680A
:100AB000416041684160416841F480614160416842
:100AC00021F47C114160416841F4E8114160016802
:100AD00041F08071016001688901FCD5416821F015
:100AE00003014160416841F0020141604168C1F386
:100AF00081010229FAD10CBD0192FEE70B48016881
:100B000041F00101016041680A4A114041600168F9
:100B1000094A11400160016821F4802101604168A7
:100B200021F4FE0141600021816097E7001002403E
:100B3000002002400000FFF8FFFFF6FE10B5FFF7AF
:100B4000DDFF00F027F800F032F900F081FB00F043
:100B5000CFFCBDE8104000F036B80C484FF47A7175
:100B60000068B0FBF1F0B0F1807F0DD220F07F4142
:100B70004FF0E020491E4161054AF02182F8141D22
:100B80000021816107210161704700000C2A0008E3
:100B90000FE000E038B501211020FFF74BFD4FF4C6
:100BA0000054ADF8004010208DF803000320104DD4
:100BB0008DF8020069462846FFF76DFB214628465E
:100BC000FFF7D3FB38BD08B501210420FFF732FD44
:100BD0004FF4C050ADF8000048208DF8030003200A
:100BE0008DF8020069460348FFF755FB08BD000079
:100BF00000100140000801402DE9F0470E4605466F
:100C000000244FF480594FF40057DFF8388414E083
:100C100039464046FFF7ABFB28064946404602D519
:100C2000FFF7A3FB01E0FFF7A2FB6806050E3946BC
:100C30004046FFF79AFB641CE4B2B442E8D3BDE837
:100C4000F08770B5FF4E4FF4006529463046FFF738
:100C50008EFB0321A020FFF7CFFF07210020FFF725
:100C6000CBFF002408210020FFF7C6FF641CE4B27C
:100C7000302CF7D329463046BDE87040FFF775BBEE
:100C800070B5F04D06464FF4006421462846FFF744
:100C90006EFB03218020FFF7AFFF09213046FFF7ED
:100CA000ABFF21462846BDE87040FFF75EBB10B59C
:100CB000E44C4FF400612046FFF757FB61142046D7
:100CC000FFF753FBA1142046FFF74FFB0020FFF76F
:100CD000D7FF2420FFF7D4FF1820FFF7D1FF012012
:100CE000FFF7CEFFA020FFF7CBFF0820FFF7C8FFDC
:100CF000BDE810400320C3E770B5D24E4FF4004565
:100D000029463046FFF733FB0321A020FFF774FF8D
:100D100007210020FFF770FF002408210020FFF7C3
:100D20006BFF641CE4B2302CF7D329463046BDE893
:100D30007040FFF71ABB70B5C24D06464FF4004431
:100D400021462846FFF713FB03218020FFF754FFBD
:100D500009213046FFF750FF21462846BDE8704084
:100D6000FFF703BB10B5B74C4FF400412046FFF727
:100D7000FCFA61142046FFF7F8FAA1142046FFF7A9
:100D8000F4FA0020FFF7D7FF2420FFF7D4FF182044
:100D9000FFF7D1FF0120FFF7CEFFA020FFF7CBFF29
:100DA0000820FFF7C8FFBDE810400320C3E738B5AF
:100DB00001210820FFF73EFC4FF47840ADF8000019
:100DC00010208DF8030003209E4C8DF80200694628
:100DD0002046FFF760FAA1142046FFF7C6FA611417
:100DE0002046FFF7C2FA4FF480412046FFF7BDFAD4
:100DF0004FF400412046FFF7B8FAE1142046FFF710
:100E0000B4FAFFF7AFFFFFF777FFFFF750FFFFF7E9
:100E100018FF38BD2DE9F0470E46054600244FF473
:100E200080594FF40057DFF81C8213E039464046E2
:100E3000FFF79DFAE8074946404602D0FFF795FACA
:100E400001E0FFF794FA6D0839464046FFF78DFA46
:100E5000641CE4B2B442E9D3F1E62DE9F84F8146CF
:100E600001210820FFF7E6FB4FF48056ADF8006043
:100E700048208DF80300DFF8CC814FF0030A8DF88D
:100E800002A069464046FFF706FA0025B700B346C0
:100E9000464614E0FFF76BFA39463046FFF765FA2D
:100EA00059463046FFF74DFA00284FEA440003D078
:100EB000C0B240F0010400E0C4B26D1CEDB24D457B
:100EC00039463046E6D3FFF750FAADF800B01020AF
:100ED0008DF803008DF802A069463046FFF7DBF974
:100EE0002046BDE8F88F2DE9F0418C00554E0546AF
:100EF0004FF480413046241FFFF737FA4FF4004784
:100F000039463046FFF733FA0321C020FFF774FE5D
:100F10006006000E0721FFF76FFE0820FFF79DFF18
:100F200028700820FFF799FF687039463046BDE801
:100F3000F041FFF71ABA2DE9F047DFF808818C007D
:100F4000064617464FF4804145464046241FFFF7AA
:100F50000CFA4FF4004949462846FFF708FA0321E6
:100F6000C020FFF749FE6006000E0721FFF744FE90
:100F700000252C460CE00820FFF76FFF30550820B5
:100F8000FFF76BFF31196D1CA41C4870EDB2E4B281
:100F9000BD42F0D349464046BDE8F047FFF7E5B90A
:100FA0002DE9F041274F06464FF480413846FFF7C0
:100FB000DCF94FF4004841463846FFF7D8F90321E1
:100FC000C020FFF719FE07210020FFF715FE0025BE
:100FD0002C460820FFF741FF30550820FFF73DFF62
:100FE00031196D1CA41CEDB24870E4B2182DF0D379
:100FF00041463846BDE8F041FFF7B7B92DE9F04169
:101000008400104F0D464FF4004631463846241FE9
:10101000FFF7ADF90321A020FFF7EEFD6006000EFB
:101020000721FFF7E9FD28780821FFF7E5FD68783B
:101030000821FFF7E1FD31463846BDE8F041FFF7F2
:1010400094B90000000C01402DE9F0418400DFF864
:10105000FC810D464FF40047164639464046241F92
:10106000FFF785F90321A020FFF7C6FD6006000EFB
:101070000721FFF7C1FD00240BE028780821FFF7C6
:10108000BBFD15F8010F0821FFF7B6FD641CE4B2A3
:101090006D1CB442F1D339464046BDE8F041FFF73C
:1010A00064B92DE9F0474FEA8000A0F10400DFF8B1
:1010B0009C911E0017460C46C5B24FF400484FF4F1
:1010C000006A0ED051464846FFF751F90321A0208F
:1010D000FFF792FD6806000E0721FFF78DFD002542
:1010E0000CE04146EFE760780821FFF793FE207897
:1010F0000821FFF78FFE6D1CEDB2A41CBD42F2D398
:101100002EB151464846BDE8F047FFF72EB941469B
:10111000F8E72DE9F047DFF834810E0004464FF47C
:1011200000474FF4006920D049464046FFF71FF9B9
:101130000321A020FFF760FD07210020FFF75CFDE1
:10114000002560780821FFF765FE20780821FFF769
:1011500061FE6D1CEDB2A41C182DF2D33EB14946C0
:101160004046BDE8F047FFF700B93946DDE73946AC
:10117000F6E72DE9F0410D46074660294DD90024D8
:10118000264645E06FF02F0000EB5500A0422BDA19
:10119000B9198846002318220120FFF782FF012396
:1011A00008F1300118221846FFF77BFFC4EB550009
:1011B000C0F1300118290FDDC0F11808401C08F0FB
:1011C000FF02C0B200233946FFF76BFF012307EB94
:1011D00048011822184604E0CAB21738C0B20123E9
:1011E0003946FFF75EFF09E0B81980460021FFF796
:1011F00090FF08F130000121FFF78BFF00226423EC
:101200001146104601F085FA641CB61CA4B2B6B2B1
:10121000B4EB550FB6D3BDE8F0813020A0EB5500FC
:1012200000EBD070012101EB6000C5F38702C0B272
:10123000002314463946FFF734FF07EB55012246D9
:10124000BDE8F041012318462BE70000000C0140E7
:1012500038B501210820FFF7EDF94FF46070ADF8C3
:10126000000010208DF80300944D03248DF80240F7
:1012700069462846FFF70FF84021ADF800104820D6
:101280008DF803008DF8024069462846FFF703F801
:1012900080212846FFF769F8A9152846FFF765F869
:1012A00069152846FFF761F838BD2DE9F041834FF5
:1012B00000240546BE1528064FF08001384602D5A9
:1012C000FFF753F801E0FFF752F86806050E3146C4
:1012D0003846FFF74CF831463846FFF746F8641CAD
:1012E000E4B2082CE7D3BDE8F0812DE9F05F734F3D
:1012F0000E4604464FF4007B99461546594638463B
:10130000DDF828A0FFF733F84FF4807841463846DF
:10131000FFF72DF80320FFF7C8FF2046FFF7C5FFB2
:101320003046FFF7C2FF2846FFF7BFFF00261EE04A
:10133000002441463846FFF718F800254146384654
:10134000FFF715F86006040E40213846FEF7F9FF56
:1013500008B1641CE4B241463846FFF706F86D1C3C
:10136000EDB2082DEAD309F80640761CF6B25645D0
:10137000DED359463846BDE8F05FFEF7F6BFF0B55C
:1013800089B00C4605462021684601F012FB002179
:101390000B466E460AE0E85C06F8130003EB5400C7
:1013A00006EB4302285C5B1C5070DBB2B3EB540FBE
:1013B000F1D3002010E0375C002349060A0E27FA1B
:1013C00003F101F001015B1C1143DBB2082BF4D3E4
:1013D00031540021401CC0B2A042ECD32246314619
:1013E000284601F0CDFA09B0F0BD2DE9F84F0024F0
:1013F0000E46074625464FF0200ADFF8C49056E017
:10140000A0F1B00147290BD83A195378A12B07D383
:101410005E204143C9F80010507801F2AD210DE083
:10142000A0F1A101022922D83A195378A12B1ED389
:101430005E204143C9F800105078A13908444001AA
:10144000C9F80000C0F3074CC0F30721C2B206EB95
:10145000041843466046CDF800A0FFF746FF40461B
:101460002021FFF78CFFA41CE4B220351BE02038BC
:101470005E281AD8134A06EB050802EB0010C0F3E9
:10148000074CC0F30721C2B2C9F800001020009039
:1014900043466046FFF729FF40461021FFF76FFFE4
:1014A000641CE4B21035ADB201E0641CE4B2385DF6
:1014B0000028A5D12846BDE8F88F0000000C0140A7
:1014C0001400002080CF030008B54FF4A060FFF7A0
:1014D0006DFA25208DF8000000208DF801008DF8B0
:1014E000020001208DF803006846FFF764FA08BD8A
:1014F00010B586B0012144F20400FFF79BF84FF4C9
:101500000070ADF8100018208DF8130003203A4C3D
:101510008DF8120004A92046FEF7BDFE2115ADF896
:10152000101004218DF8131004A92046FEF7B3FE15
:101530004FF4E13000900020ADF80400ADF8060053
:10154000ADF80800ADF80C000C202C4CADF80A00EA
:1015500069462046FFF7EFF8012240F22551204668
:10156000FFF756F901212046FFF748F9FFF7ACFFD6
:1015700006B010BD10B5214C01462046FFF794F986
:1015800080212046FFF7DDF90028F9D010BD70B5A5
:101590001A4D044620212846FFF7D3F9002804D02D
:1015A0002846FFF785F92070012070BD08B500209E
:1015B0008DF80000114C04E09DF800102046FFF764
:1015C00073F96846FFF7E3FF0028FAD0F4E710B597
:1015D0000A4C25212046FFF7DDF9208880060AD530
:1015E000201D02880749064B08781A54401C0870D1
:1015F00005490120087010BD000801400038014075
:10160000BC090020190000201A000020FFF7A5FAED
:10161000C34DC44C4FF40056E078142816D231461E
:101620002846FEF7A4FE002264231146104601F06E
:1016300070F831462846FEF798FE002264231146D2
:10164000104601F066F8E078401CE070314628460C
:10165000FEF78DFE00220A231146104601F059F8CC
:10166000A0680228D8D10020A0604FF4A061AE4845
:1016700001F09FF9AC4901F5A060FFF7B6FEA0802C
:101680000120A060C8E7FFF768FAA64CA06801280F
:101690000DD1FFF7D6FAFFF72FFBA188A248FFF77D
:1016A00068FD002264231146104601F032F8002242
:1016B0000A231146104601F02CF8E7E710B503465F
:1016C0000022104603E09C5C6040521CD2B28A4269
:1016D000F9D310BD2DE9F041924DA878012838D1F9
:1016E000924F697800243878012909D03A460229B6
:1016F000527809D02CD9BE7836B3A52802D108E09B
:10170000A52825D06C7023E0A528FBD1A52AF9D106
:101710001EE0A52AF6D1C91E8E4219DCF8780128F0
:10172000F0D182488021803801F043F9B61E7F480D
:10173000F2B22A70391D803801F022F90220A86027
:101740009020FFF717FFDDE76C706720FFF712FFAF
:10175000AC70BDE8F081FFF700FADFF8C881DFF870
:10176000CCA108F10C08714F6E4D08F116094FF02D
:10177000000BAAF1800A6E4C4FF4006631462046F9
:10178000FEF7DFFD012805D101032046FEF7D9FD54
:1017900001280CD031462046FEF7D3FD50B14FF45E
:1017A00080512046FEF7CDFD00286AD0B0E0FFF75B
:1017B00091FFADE0002264231146104600F0A9FF1E
:1017C00031462046FEF7BDFD0028F9D000226423F3
:1017D0001146104600F09DFF00244646305DFFF79D
:1017E000C9FE641CE4B2032CF8D300226423114622
:1017F000104600F08EFF4B4E00241036305DFFF790
:10180000B9FE641CE4B2062CF8D30022642311460E
:10181000104600F07EFF45488021803801F0C9F86D
:10182000002468780BE0395D4D2906D139194A78D2
:10183000412A02D18978432903D0641CE4B284424E
:10184000F1D3844200D30024021B38483919803870
:1018500001F096F868782021021B02200AF8021095
:1018600000244E46A860305DFFF784FE641CE4B29D
:10187000082CF8D3002264231146104600F049FFDB
:1018800044E0002264231146104600F042FF314636
:101890002046FEF756FD0028F9D0002264231146A9
:1018A000104600F036FF00244646305DFFF762FE2A
:1018B000641CE4B2032CF8D30022642311461046C2
:1018C00000F027FF174E00241736305DFFF752FE59
:1018D000641CE4B20A2CF8D300226423114610469B
:1018E00000F017FF00244E46305DFFF743FE641CF6
:1018F000E4B2082CF8D3002264231146104600F00D
:1019000008FF3988AAF800100220A86085F801B005
:1019100000220A231146104600F0FBFE2BE70000D0
:1019200000100140180000203C040020BC090020E9
:1019300000080140002204E0521C00F8013BD2B232
:10194000491C0B78002BF7D100210170104670471D
:101950002DE9F0410E460546140006D045B14EB1C2
:10196000FB48807840B1112010E00020BDE8F081F4
:1019700004200BE00C2009E02878012808D0022878
:1019800006D0032804D0042802D001201070ECE710
:1019900000F062FF074605F10F013046FFF7CAFF6E
:1019A0000546384600F05CFF002020702846DDE741
:1019B0000146002002E0401CC0B2491C0A78002AFF
:1019C000F9D170472DE9F0410E4605461400CDD0FF
:1019D0002DB136B1DE48807828B112200DE0042008
:1019E0000BE00C2009E02878012808D0022806D056
:1019F000032804D0042802D001201070B6E700F0BC
:101A00002BFF07463046FFF7D3FF0F2804D938468F
:101A100000F026FF0B2008E0314605F10F00FFF72C
:101A200089FF384600F01CFF002020709EE77CB53F
:101A3000C84D00246946204600F083FD58B955F88A
:101A4000241041B1012906D0D1E9020200EB820045
:101A500088630198C863641CE4B21F2CEAD97CBD7A
:101A6000BB4C02E0C82000F02FFE60780028F9D0BF
:101A7000642160690025B0FBF1F0606118B9257040
:101A8000FF2000F09DFD00F0E7FE216A2562A161C4
:101A900000F0E6FED4E90510B0FBF1F0C0F16400FF
:101AA000207000F030FFFFF7C2FF642000F00CFE52
:101AB000E9E7A74C00F0D0FE216A491C216200F042
:101AC000CFFE00F01FFFF5E7002203E0491E00F8FB
:101AD000012B89B20029F9D1704770B586B000F0AA
:101AE0000DFF9B4B00245C639C70DC701C72DC71EE
:101AF000DC601C629C615C615C709C7103F11C0188
:101B00002046401CC0B201F8014B0428F9D31C71D7
:101B10005C719048DC624FF4B46180305C62FFF726
:101B2000D3FF80218B48FFF7CFFF8A480022803007
:101B300000F150013F25416180F8405080F841405C
:101B4000521CD2B250305031112AF4D3446180F883
:101B5000405080F841407F481C63803098624FF4C9
:101B6000A071A0F5B860FFF7AFFF7B48002200F13D
:101B7000200100F8044B521C40F80B1B92B200F8F5
:101B8000015B203100F8104B092AF2D30470446045
:101B9000C573047470481861802600F55070CDE953
:101BA00001066C4A03254FF6FF701F23121F002108
:101BB0000090AFF20110CDE9034500F0F6FA05AA56
:101BC00066A11F2000F03CFC6848CDE901064FF6F5
:101BD000FE701E23664A00210090AFF27B10CDE913
:101BE000034500F0E2FA05AA62A11E2000F028FCDD
:101BF00006B0BDE8704000F082BE5549C8790128A2
:101C000004D18878FF2801D2401C8870704770B5D5
:101C10004F4CE079012822D100F01EFE0546A07845
:101C200020B1401E10F0FF00A07013D1E07888B9F9
:101C300000F0D1F96079217988420BD0454951F8FB
:101C40002010E162C86A401CC862E068401CE06085
:101C500000F01EFE2846BDE8704000F001BE70BDD9
:101C600010B53B4CE07901280CD100F0F5FDA178CE
:101C700021B9E178FF2901D2491CE170BDE810408B
:101C800000F0EEBD10BD70B500F0E6FD304C05462D
:101C9000A07898B9E07888B900F09DF96079217949
:101CA00088420BD02B4951F82010E162C86A401CD1
:101CB000C862E068401CE06000F0E5FD2846BDE831
:101CC000704000F0CDBD10B5214CE079012813D152
:101CD00000F0C2FDE17831B1491E11F0FF01E17061
:101CE00001D1A17819B1BDE8104000F0B9BD00F0F4
:101CF000B7FDBDE81040C6E710BD10B5144CE07943
:101D000000280CD100F067F960791249207151F870
:101D10002000E0626062BDE8104000F0A4BD10BD8C
:101D200010B5022000F0D0FC00F096FD084C002118
:101D3000216200F095FD642000F0C6FC00F08CFDEF
:101D4000216A616101216170BDE8104000F088BD29
:101D5000440000207C0F00203C0A002075432F4FD8
:101D6000532D49492049646C650000007C0B00201C
:101D7000780D002075432F4F532D4949205374612E
:101D8000740000002DE9F04100F0F9FD00F064FD61
:101D9000974D696B491C696300F062FDE879012881
:101DA0003DD1687A0126002720B1012837D00228CA
:101DB00002D06F722C6B2EE06E72FBE700F04CFDD0
:101DC000218C29B3491E0904090C218420D194F8DF
:101DD000221011F0370F06D021F0370184F82210BD
:101DE00084F8236001E084F8237094F82210090736
:101DF0000ED494F82810AA797D4B1143A97194F858
:101E000026101C3394F827C05A5C42EA0C025A543C
:101E1000646900F025FD94F824001F28CED1A5E5C3
:101E20004FF48F707047704710B590F8262090F8E7
:101E300027408B18DA7AA243DA7204D18A7A90F8B2
:101E4000280082438A7210BD70B50146847A6948C1
:101E50000026045D0D19ED7A405D00EBC400C5B2AB
:101E6000654850F82500068490F82260964380F873
:101E7000226080F8233032070BD45D4A90F8283076
:101E80009679334393711C3290F82760135D334386
:101E90001355FFF7C9FF284670BD30B5544C00F10B
:101EA0000B02616A41F81C0F8B7AC97A9D5C0D4365
:101EB0009D54616A827A91F828301A43827291F8AF
:101EC000260004F11C0391F827501A5CAA431A5407
:101ED00004D191F82810A0798843A07130BD002268
:101EE000827211460B30491CC9B200F8012B04293B
:101EF000F9D3704705E011F8013B521E00F8013B91
:101F000092B2002AF7D170472DE9F05F9846DDE9DB
:101F10000ABA91460D46064600F09EFC344FBC6A54
:101F2000002C54D061690C34B96200F099FC44F87B
:101F30000C5C26760025A575E575A582C4F800B071
:101F400044E902A90C98A080A4F80680F0086577FF
:101F5000A076012306F0070103FA00F261762277EA
:101F600003FA01F2E27625612562A5626562E56207
:101F70003F20256384F8340084F835500C3C20461B
:101F800000F0FCFC204600F0BBFC00F065FC0146C4
:101F9000194840F82640386BC4E9050500B1846152
:101FA0003C6394F82800BA791043B871104A14F8C9
:101FB000260F1C326478135C23431354387A401C78
:101FC0003872084600F04CFC0020BDE8F09F00F09D
:101FD00047FC4220F9E70649064A01F11C038879CB
:101FE000105C1B5CD25C02EBC000487170470000C3
:101FF00044000020102A00087C0F00202DE9F05F2B
:102000000C4605461F2801D3FF2D01D11F2C02D3FA
:102010002A20BDE8F09F00F01FFCDFF8FCC3034658
:102020005CF8240020B1184600F01AFC2820F0E7E4
:10203000FF2D03D1F948006890F824505CF8252062
:102040001AB3012A26D0E108012000FA01F604F0B3
:10205000070AF7B200FA0AF0C6B200204CF82500D1
:102060004CF8242092F826C0DFF8B4E392F8275009
:1020700092F828901EF80C00284221D0A843DFF8DF
:10208000A4B30EF80C000AD00FE0184600F0E8FBED
:102090002920BEE7184600F0E3FB4320B9E79BF890
:1020A000000020EA09008BF800009BF8000038438C
:1020B0008BF800001EF8018048EA06080EF801803F
:1020C000D06998B100EB0C0898F80BC03CEA050CFD
:1020D00088F80BC003D1857A25EA09058572857ACF
:1020E0003D4385720844C57A3543C57202F8244FD2
:1020F0001846917082F801A01771D67000F0B0FBFD
:10210000C9480078012801D1FFF7BDFD002080E714
:102110002DE9FE431C4616460F4680461F2B02D96A
:102120002A20BDE8FE8300F097FBC049097819B169
:1021300000F096FB3C20F4E7B74D55F8241019B198
:1021400000F08EFB2820ECE7012145F8241000F078
:1021500087FB002332463946404600F0D5FB002677
:102160000146009601963346324620460296FFF716
:10217000CBFE070007D000F06FFB45F8246000F0AD
:102180006FFB3846CDE7A84800780128F9D1FFF762
:102190007AFDF6E7D30707D0920705D5002200297C
:1021A00002D004C0491EFAE770472DE9FF4F83B003
:1021B0001C46DDE91386DDE9119792468B461F2BFD
:1021C00003D92A2007B0BDE8F08F00F045FB9749FE
:1021D000097819B100F044FB3C20F3E78E4D55F827
:1021E000241019B100F03CFB2820EBE7012145F851
:1021F000241000F035FB324639464846FFF7CAFF47
:10220000334652465946039800F07EFB0097CDE9CD
:10221000018601464A462046109BFFF775FE0600E0
:1022200008D000F019FB002145F8241000F018FB3D
:102230003046C7E77C4800780128F9D1FFF723FD35
:10224000F6E72DE9F04705467848007810B14020C0
:10225000BDE8F0871F2D04D005D3FF2D03D02A2021
:10226000F6E73E20F4E700F0F7FA0646FF2D03D12B
:102270006A48006890F82450DFF89C9159F825408E
:102280005CB1012C0ED094F82610654A94F82730E2
:10229000505C984350540AD00FE0304600F0E0FA0A
:1022A0004320D5E7304600F0DBFA3D20D0E75D481B
:1022B00094F82820017891430170E16911B120461A
:1022C000FFF7B2FD4FF00008A4F82080584F84F8C3
:1022D000228084F823803878FF2801D2401C38708F
:1022E000304600F0BDFAFFF79EFD00F0B5FA064655
:1022F000387808B1401E3870204600F002FB4D4986
:102300000878401E087049F82580A0694146A0B1B0
:1023100062694261D4E905028261474802686261EC
:1023200004603F2004F8400F3046617000F098FAD6
:102330003D480078012806D007E060693F4A816186
:1023400060691060E9E7FFF79EFC002080E710B5A8
:1023500004461F2804D00FD3FF2803D02A2010BD25
:102360003E2010BD00F078FA2C49096891F8294008
:1023700000F076FA204610BD00F06EFA264951F8BA
:10238000241041B101290AD03F2281F8292000F010
:1023900067FA002010BD00F063FA432010BD00F082
:1023A0005FFA3D2010BD2DE9F0410F4605461400AF
:1023B0002FD01F2D03D9FF2D01D02A2006E027B1F1
:1023C0001A48007820B1112000E00C20107020E0A5
:1023D00000F042FA0646FF2D03D11048006890F83D
:1023E00024500D4850F82510432571B101290CD017
:1023F00038464031FFF79EFA0546304600F030FA85
:10240000002020702846BDE8F081304600F028FA10
:1024100025700020F7E700007C0F002068000020F6
:10242000600000204A0000204B00002046000020F1
:10243000470000204C0000206C00002074000020A9
:102440002DE9F041884605461400DCD01F2D03D944
:10245000FF2D01D02A2006E0B8F1000F05D09448E6
:10246000007820B112201070CDE70C20FBE700F0BF
:10247000F3F90646FF2D03D18E48006890F82450EA
:102480008D48432750F825505DB1012D09D04046B5
:10249000FFF78EFA0F2809D9304600F0E1F9412004
:1024A0000DE0304600F0DCF92770ACE7414605F15D
:1024B0004000FFF73FFA304600F0D2F900202070CC
:1024C000A1E710B504461F2801D32A2010BD00F053
:1024D000C3F9794951F8241059B101290DD091F867
:1024E0002220130729D532F0080281F8222008D0D3
:1024F00009E000F0B5F9462010BD00F0B1F9432025
:1025000010BD0A8C1AB100F0ABF9002010BD6B4A67
:1025100091F8283014782343137011F8262F684B54
:1025200049789C5C0C439C5400F09AF9654800780B
:102530000128EAD1FFF7A7FBE7E700F091F9442073
:1025400010BD2DE9F0410E4604461F2803D9FF2C8B
:1025500001D02A2057E746B100203060706000F0BB
:102560007BF90146FF2C02D005E009204BE75148DA
:10257000006890F82440504850F8240058B10128D1
:1025800009D0027CD2070BD0D0E9025700240846BC
:1025900000F066F90AE0084600F062F9432032E7ED
:1025A000084600F05DF945202DE7641C01CD0028A8
:1025B000FBD0A0003060381B80007060002022E754
:1025C00070B504461F2804D005D3FF2C03D02A2061
:1025D00070BD472070BD00F03FF901463548FF2C23
:1025E000006805D090F82400A04204D1012503E042
:1025F00090F82440FAE700252F4850F8240058B1FD
:1026000001280ED090F826202D4C90F82760A35C6E
:10261000B343A3540AD00FE0084600F021F9482044
:1026200070BD084600F01CF9432070BD234A90F8A5
:1026300028401378A343137010F8222F42F00802A9
:102640000270084600F00CF90DB1FFF71CFB0020EA
:1026500070BD70B50E4604461F2803D9FF2C01D06B
:102660002A2070BD2EB100F0F7F80546FF2C02D0ED
:1026700005E0092070BD0F48006890F824400E481E
:1026800050F8241051B101290DD050223046FFF7E7
:1026900031FC284600F0E4F8002070BD284600F028
:1026A000DFF8292070BD284600F0DAF8432070BD1D
:1026B00046000020680000207C0F00204A00002017
:1026C000600000204B00002070B504465C48007894
:1026D00000281DD1002C1BD000F0BEF8034659483D
:1026E000594D016891F8262091F82760A85CB04305
:1026F000A85405D1554891F828500278AA43027091
:102700000C84184600F0ACF8BDE87040FFF7BBBA87
:1027100070BD70B54A4C24780CB1552070BD00B91D
:1027200019B13B2902D9512070BD1AB13B2A02D9F7
:10273000522070BD2BB14FF47A74A34203D35320BF
:1027400070BD542070BD4FF47A756B43B3FBF4F346
:102750004FF461646043C1EB011100EB8100104450
:1027600000EB4001C1EBC01003EBC000040C80B2D1
:10277000FFF7AAFF4FF4004507E02846FFF7A4FF44
:102780002846FFF7A1FF641EA4B2002CF5D100205B
:1027900070BD10B504461F2801D32A2010BD00F0DB
:1027A0005BF82B4951F8241091B1012910D00A8C03
:1027B00092B100230B8491F8222012F0370F0FD032
:1027C00022F0370281F82220012281F8232009E03B
:1027D00000F046F8432010BD00F042F8502010BD34
:1027E00081F8233091F82220120711D4174A91F86A
:1027F000283014782343137011F8262F124B497890
:102800009C5C0C439C5400F02BF8FFF73CFA01E071
:1028100000F026F8002010BD10B500F01DF80D499D
:102820000C6800F01DF8204610BD10B5044600F0FD
:1028300013F808490C60BDE8104000F011B8000022
:102840004600002068000020600000204A000020B0
:102850007C0F002078000020EFF3108072B67047E4
:1028600080F3108870471D484FF0FF010170002071
:1028700080F309881A48012101701A484FF08051ED
:10288000016062B6FEE717484FF080510160704763
:1028900014484FF080510160704772B6EFF3098021
:1028A00028B1203880E8F00F0F490968086000B5AA
:1028B0000E4880475DF804EB0D480E490A78027017
:1028C00009480D490A680260106890E8F00F20304E
:1028D00080F309884EF0040E62B6704722ED00E0E6
:1028E0004B00002004ED00E0680000207B29000878
:1028F0004800002049000020700000207047704709
:1029000070477047704770474FF080731360131F14
:102910001860A2F108006FF001030360001F4FF080
:1029200012330360001F4FF003330360001F4FF0AA
:1029300002330360001F5B100360001F0160001F73
:102940004FF011310160001F19010160001F4FF0AD
:1029500009310160001FD9000160001F4FF00731ED
:102960000160001F4FF006310160001F4FF005317C
:1029700001609900001F0160704770477047704701
:1029800040EA01039B0703D009E008C9121F08C0F1
:10299000042AFAD203E011F8013B00F8013B521E71
:1029A000F9D27047D2B201E000F8012B491EFBD2E8
:1029B00070470022F6E710B513460A46044619464A
:1029C000FFF7F0FF204610BD064C074D06E0E0681B
:1029D00040F0010394E8070098471034AC42F6D366
:1029E000FDF7AAFB102B0008302B000802E008C8F6
:1029F000121F08C1002AFAD170477047002001E079
:102A000001C1121F002AFBD17047000000A24A0436
:102A100000000100020001000300010002000100AB
:102A20000400010002000100030001000200010097
:102A30000500010002000100030001000200010086
:102A40000400010002000100030001000200010077
:102A50000600010002000100030001000200010065
:102A60000400010002000100030001000200010057
:102A70000500010002000100030001000200010046
:102A80000400010002000100030001000200010037
:102A90000700010002000100030001000200010024
:102AA0000400010002000100030001000200010017
:102AB0000500010002000100030001000200010006
:102AC00004000100020001000300010002000100F7
:102AD00006000100020001000300010002000100E5
:102AE00004000100020001000300010002000100D7
:102AF00005000100020001000300010002000100C6
:102B000004000100020001000300010002000100B6
:102B1000302B0008000000207C000000EC29000899
:102B2000AC2B00087C00002024170000FC290008C2
:102B3000020406080000000001020304010203046D
:102B40000607080900000000000000000000000067
:102B5000000000002B2B2B0041542B4D4143004122
:102B6000542B44454641554C540041542B52455337
:102B700045540000000000000000000000000000BC
:102B80000000000000000000000000000000000045
:102B90000000000000000000000000000000000035
:0C2BA00000000000000000000000000029
:0400000508000147A7
:00000001FF
