:020000040800F2
:100000000004002047010008C5010008C7010008DE
:10001000CB010008CF010008D30100080000000058
:10002000000000000000000000000000D7010008F0
:10003000D90100080000000037320008DD01000887
:1000400067010008670100086701000867010008F0
:1000500067010008670100086701000867010008E0
:1000600067010008670100086701000867010008D0
:1000700067010008670100086701000867010008C0
:1000800067010008670100086701000867010008B0
:1000900067010008670100086701000867010008A0
:1000A0006701000867010008670100086701000890
:1000B0006701000867010008670100086701000880
:1000C0006701000867010008670100086701000870
:1000D00067010008591A0008670100086701000855
:1000E0006701000867010008670100086701000850
:1000F0006701000867010008670100086701000840
:10010000670100086701000867010008670100082F
:10011000670100086701000867010008670100081F
:10012000670100086701000867010008670100080F
:10013000DFF80CD003F02AF90048004775010008E9
:10014000A0170020704708488047084981F30888B5
:1001500007480047FEE7FEE7FEE7FEE7FEE7FEE7AB
:10016000FEE7FEE7FEE7FEE745010008A0170020D6
:100170003101000810B500F063FE02F022F80423FC
:100180000A4A00210A4802F0D8FB0523094A002147
:10019000094802F0D2FB0623084A0021084802F071
:1001A000CCFB02F029F9002010BD0000BC010020AA
:1001B000A11A0008FC020020271B00083C040020B4
:1001C000351C0008704700BFFEE700BFFEE700BF18
:1001D000FEE700BFFEE770477047704710B502F0BA
:1001E00002F802F040F902F019F810BD10B504460B
:1001F000C649601A8C422FD009DCC548204480B122
:10020000B0F5806F16D0B0F5006F4AD11BE0B0F5A5
:10021000806F2AD0B0F5006F30D0B0F5406F40D17C
:1002200035E00121042000F0FFFA0021042000F055
:10023000FBFA37E00121082000F0F6FA002108203F
:1002400000F0F2FA2EE00121102000F0EDFA00217A
:10025000102000F0E9FA25E00121202000F0E4FA66
:100260000021202000F0E0FA1CE00121402000F0F5
:10027000DBFA0021402000F0D7FA13E001218020B2
:1002800000F0D2FA0021802000F0CEFA0AE001212D
:10029000080200F0C9FA00214FF4807000F0C4FA9F
:1002A00000E000BF00BF10BD10B50121084600F0FE
:1002B000BBFA0021012000F0B7FA10BD2DE9F04192
:1002C000024600250026002000230024002791F884
:1002D00003C00CF00F0591F803C00CF0100CBCF13A
:1002E000000F03D091F802C04CEA050591F800C058
:1002F000BCF1000F31D0146800202BE04FF0010C4E
:100300000CFA00F3B1F800C00CEA03069E4220D1BB
:1003100083004FF00F0C0CFA03F7BC4305FA03FC03
:100320004CEA040491F803C0BCF1280F06D14FF049
:10033000010C0CFA00FCC2F814C00AE091F803C0EA
:10034000BCF1480F05D14FF0010C0CFA00FCC2F8CB
:1003500010C0401C0828D1D31460B1F800C0BCF113
:10036000FF0F34DD546800202EE000F1080C4FF040
:10037000010808FA0CF3B1F800C00CEA03069E422B
:1003800021D183004FF00F0C0CFA03F7BC4305FAA0
:1003900003FC4CEA040491F803C0BCF1280F05D11A
:1003A00000F1080C08FA0CF8C2F8148091F803C0A8
:1003B000BCF1480F07D100F1080C4FF0010808FA12
:1003C0000CF8C2F81080401C0828CED35460BDE859
:1003D000F0814FF6FF710180022181700421C1700C
:1003E00070470246002093680B400BB1012000E0EB
:1003F000002070470146886880B27047024600209E
:10040000D3680B400BB1012000E00020704701468B
:10041000C86880B2704701617047416170470AB196
:10042000016100E041617047C16070474FF4803264
:100430000A438261816182618269826970470246F2
:100440000020344B18684FF68073184040EA0210C1
:100450000843304B186070472F49C8617047F0B5AA
:100460000A4600230024002100252A4E7168C0F3AB
:10047000034583B200F44016B6F5401F08D121F0C1
:100480007061244E766826F07066224F7E6012E01E
:1004900000F48016B6F5801F06D1032606FA05F48F
:1004A000A14341F0706106E0460D360103FA06F6FD
:1004B000B14341F0706122B1460D360103FA06F6F0
:1004C0003143144E7160F0BD30B500228B071C0F14
:1004D0000F2303FA04F20F4B08338C1053F8243027
:1004E00093430C4C08348D1044F8253023468C106F
:1004F00053F824308C07240F00FA04F42343054CEE
:1005000008348D1044F8253030BD0000001401403F
:1005100000F8FEBF0000014000002042DE480068F5
:1005200040F00100DC49086008464068DB490840AB
:10053000D949486008460068D9490840D64908604A
:100540000846006820F4802008600846406820F4CF
:10055000FE004860002088607047CF49096821F498
:100560008031CD4A11601146096821F48021116063
:10057000B0F5803F03D0B0F5802F0ED106E0C6491C
:10058000096841F48031C44A116007E0C249096832
:1005900041F4A021C04A116000E000BF00BF7047D5
:1005A00010B501460022002300204A11012A02D181
:1005B000B94C236806E0022A02D1B74C236A01E055
:1005C000B54C636A01F01F02012494401C400CB139
:1005D000012000E0002010BD38B50020009000246C
:1005E000002500BF3120FFF7DBFF05460098401CC7
:1005F00000901DB90098B0F5A06FF3D13120FFF73E
:10060000CFFF08B1012400E00024204638BD014698
:100610000020A14A106820F0F80040EAC1001060F4
:100620007047A04908607047024600209A4B5868FE
:1006300020F47C1042EA01031843974B586070473E
:1006400098490866704701460020934A506820F098
:1006500003000843506070478F48406800F00C006A
:100660007047014600208C4A506820F0F000084393
:100670005060704701460020874A506820F4E060CF
:1006800008435060704701460020834A506820F4B8
:10069000605040EAC1005060704729B17E4A527AEA
:1006A00002437D4B5A7204E07B4A527A82437A4B72
:1006B0005A7270477B49D831086070470146002064
:1006C000754A506820F4404008435060704700214C
:1006D000714A20321170704A82F82010012802D02D
:1006E00004280AD104E001216B4A2032117005E090
:1006F0000521694A2032117000E000BF00BF704739
:100700006949086070476449096A0143624A116295
:100710007047654944390860704730B500210022B0
:10072000002400235C4D6D6805F00C0121B1042903
:1007300005D0082923D105E05C4D056022E05B4D22
:1007400005601FE0544D6D6805F47012022505EB3D
:100750009242514D6D6805F480341CB9544D554397
:1007600005600BE04C4D6D6805F400351DB1504D32
:100770005543056002E04D4D5543056002E04B4D89
:10078000056000BF00BF444D6D6805F0F001090928
:10079000484D6B5C0568DD4045603F4D6D6805F474
:1007A000E061090A434D6B5C4568DD4085603A4D68
:1007B0006D6805F46051C90A3E4D6B5C4568DD40CB
:1007C000C560354D6D6805F44041890B3A4D6B5C51
:1007D000C568B5FBF3F5056130BD29B12E4A5269F4
:1007E00002432D4B5A6104E02B4A526982432A4B43
:1007F0005A61704729B1284A92690243264B9A618F
:1008000004E0254A92698243234B9A61704729B1DB
:10081000214AD2690243204BDA6104E01E4AD269C0
:1008200082431D4BDA61704729B11B4AD2680243EB
:10083000194BDA6004E0184AD2688243164BDA603A
:10084000704729B1144A12690243134B1A6104E03C
:10085000114A12698243104B1A617047124940399C
:10086000086070470F49C86470470B49C8717047EA
:100870000948406A40F08070074948627047014665
:100880000020054A92680A400AB1012000E00020D9
:100890007047014988727047001002400000FFF85D
:1008A000FFFFF6FE000042428004424200127A003E
:1008B00000093D00000000201000002010B5044693
:1008C000D749601A8C422BD006DCD648204498B118
:1008D000B0F5806F38D119E0B0F5806F2AD0B0F54F
:1008E0006C4F31D101218803FFF79EFF00214FF4A7
:1008F0008040FFF799FF28E001214804FFF7A1FF9E
:1009000000214FF40030FFF79CFF1EE00121880416
:10091000FFF797FF00214FF48020FFF792FF14E0CC
:100920000121C804FFF78DFF00214FF40020FFF7DD
:1009300088FF0AE001210805FFF783FF00214FF43B
:100940008010FFF77EFF00E000BF00BF10BD2DE963
:10095000F04786B005460E460024A24600BF00BF01
:1009600000272F462C8A4CF6FF700440F088044381
:100970002C82AC894EF6F3100440B08831890843CC
:10098000718908430443AC81AC8A4FF6FF400440B0
:10099000B0890443AC8201A8FFF7BFFEA24887429A
:1009A00002D1DDF810A001E0DDF80CA00AEBCA00CE
:1009B00000EB0A1031688900B0FBF1F86420B8FB45
:1009C000F0F004012009642101FB1089322000EBC2
:1009D0000910B0FBF1F000F00F0004432C8106B0C9
:1009E000BDE8F0874FF41651016000218180C1807D
:1009F00001810C21418100218181704710B502469F
:100A00000020108A4FF2FF0318400B884C882343C4
:100A10008C882343CC8823431843108210BD0021C7
:100A2000018041808180C180704721B1828942F478
:100A30000052828104E082894DF6FF731A40828160
:100A40007047F0B503460024002600250020184614
:100A5000C1F3421401F01F06012707FA06F5012C25
:100A600001D10C3004E0022C01D1103000E0143030
:100A70001AB107682F43076002E00768AF430760B9
:100A8000F0BD1AB1838A0B43838202E0838A8B43D1
:100A900083827047028A4FF6F0731A400282028AFC
:100AA0000A430282704782894FF2FF731A408281A3
:100AB00082890A438281704721B1828942F0020211
:100AC000828104E082894FF6FD731A40828170476B
:100AD000028A4FF6DF731A400282028A0A430282B8
:100AE000704721B1028A42F48042028204E0028A05
:100AF0004BF6FF731A4002827047C1F308028280EE
:100B0000704701468888C0F308007047818941F02A
:100B1000010181817047028BD2B20283028B42EACB
:100B2000012202837047028B02F47F420283028B10
:100B30000A430283704721B1828A42F020028282F6
:100B400004E0828A4FF6DF731A408282704721B137
:100B5000828A42F01002828204E0828A4FF6EF73AA
:100B60001A408282704721B1828A42F00802828252
:100B700004E0828A4FF6F7731A4082827047828AB5
:100B80004FF6FB731A408282828A0A438282704740
:100B900021B1828A42F00202828204E0828A4FF608
:100BA000FD731A40828270470246002013880B4072
:100BB0000BB1012000E000207047CA43028070475B
:100BC00070B502460B460024002100250020C3F327
:100BD000421503F01F01012606FA01F1012D02D191
:100BE0009689314006E0022D02D1168A314001E09B
:100BF000968A31401C12012606FA04F41688344005
:100C000011B10CB1012000E0002070BD10B5002230
:100C100000230A1201249440A3B2DC43048010BDD7
:100C2000004C004000BCFFBF003801403149014387
:100C3000314A1160704770B5002100230F22C4783B
:100C400004B32D4C246804F4E064C4F5E064210A84
:100C5000C1F10403CA40447804FA03F184781440D3
:100C600021430901254C0678A155047804F01F059D
:100C70000124AC4005786D11AD0005F1E025C5F803
:100C8000004109E0047804F01F050124AC401C4D2C
:100C90000678761145F8264070BD1A4A0A4002438C
:100CA000154B1B1F1A60704739B1134A121D126889
:100CB0000243114B1B1D1A6006E00F4A121D1268F9
:100CC00082430D4B1B1D1A607047042808D14FF05A
:100CD000E021096941F004014FF0E022116107E0D1
:100CE0004FF0E021096921F004014FF0E022116189
:100CF000704700000000FA050CED00E000E400E0A1
:100D000080E100E080FFFF1F0CB500200190009003
:100D10004748006840F480304549086000BF4448B7
:100D2000006800F4003000900198401C0190009889
:100D300018B90198B0F5A06FF1D13D48006800F4F2
:100D4000003010B10120009001E0002000900098D8
:100D5000012844D13748006840F010003549086048
:100D60000846006820F0030008600846006840F06C
:100D7000020008602E4840682D49486008464068D7
:100D800048600846406840F4806048600846406813
:100D900020F47C1048600846406840F4E810486041
:100DA0000846006840F08070086000BF2048006876
:100DB00000F000700028F9D01D48406820F00300C2
:100DC0001B4948600846406840F00200486000BF88
:100DD0001748406800F00C000828F9D101E000BF76
:100DE000FEE70CBD10B5FFF78FFF10BD10B5104822
:100DF000006840F001000E490860084640680E494E
:100E000008400B494860084600680C4908400849FA
:100E100008600846006820F48020086008464068A2
:100E200020F4FE00486000208860FFF7DBFF10BD63
:100E300000100240002002400000FFF8FFFFF6FE15
:100E400010B5FFF7D3FF00F039F800F03FF900F0DC
:100E5000DBFB00F093FD00F04AF810BD30B51448FC
:100E600000684FF47A72B0FBF2F1B1F1807F00D3E9
:100E70001DE021F07F40401E4FF0E02250615017EE
:100E80000F22002807DA13071D0E0A4B00F00F048B
:100E9000241F1D5503E013071C0E074B1C5400BFF5
:100EA00000204FF0E02290610720106100BF30BDAC
:100EB000D033000818ED00E000E400E008B501219F
:100EC0001020FFF797FC4FF40050ADF80000102001
:100ED0008DF8030003208DF8020069460E48FFF7E5
:100EE000EDF94FF400510C48FFF795FA08BD08B52D
:100EF00001210420FFF77EFC4FF4C050ADF8000044
:100F000048208DF8030003208DF80200694603484D
:100F1000FFF7D4F908BD00000010014000080140AF
:100F200070B504460D4600261BE04FF40051FD4805
:100F3000FFF773FA04F0800028B14FF48051F948AC
:100F4000FFF769FA04E04FF48051F648FFF765FABD
:100F50006006040E4FF40051F248FFF75CFA701C73
:100F6000C6B2AE42E1DB70BD10B54FF40061ED4892
:100F7000FFF753FA0321A020FFF7D2FF072100203B
:100F8000FFF7CEFF002405E008210020FFF7C8FF8F
:100F9000601CC4B2302CF7DB4FF40061E148FFF76E
:100FA0003AFA10BD10B504464FF40061DD48FFF772
:100FB00034FA03218020FFF7B3FF09212046FFF711
:100FC000AFFF4FF40061D748FFF725FA10BD10B509
:100FD0004FF40061D348FFF71EFA4FF40051D14897
:100FE000FFF719FA4FF48051CE48FFF714FA0020AA
:100FF000FFF7D8FF2420FFF7D5FF1820FFF7D2FF17
:101000000120FFF7CFFFA020FFF7CCFF0820FFF75C
:10101000C9FF0320FFF7C6FF10BD10B54FF4004114
:10102000C048FFF7FAF90321A020FFF779FF072155
:101030000020FFF775FF002405E008210020FFF7DE
:101040006FFF601CC4B2302CF7DB4FF40041B54891
:10105000FFF7E1F910BD10B504464FF40041B14867
:10106000FFF7DBF903218020FFF75AFF0921204613
:10107000FFF756FF4FF40041AA48FFF7CCF910BD27
:1010800010B54FF40041A748FFF7C5F94FF40051E0
:10109000A448FFF7C0F94FF48051A248FFF7BBF90D
:1010A0000020FFF7D8FF2420FFF7D5FF1820FFF717
:1010B000D2FF0120FFF7CFFFA020FFF7CCFF0820D1
:1010C000FFF7C9FF0320FFF7C6FF10BD08B50121D8
:1010D0000820FFF78FFB4FF47840ADF80000102098
:1010E0008DF8030003208DF8020069468D48FFF754
:1010F000E5F84FF480518B48FFF78DF94FF400511C
:101100008848FFF788F94FF480418648FFF783F954
:101110004FF400418348FFF77EF94FF400618148A6
:10112000FFF779F9FFF7ACFFFFF777FFFFF74FFF06
:10113000FFF71AFF08BD70B504460D4600261AE0F9
:101140004FF400517748FFF768F904F0010028B127
:101150004FF480517348FFF75EF904E04FF480517B
:101160007048FFF75AF964104FF400516D48FFF7CB
:1011700052F9701CC6B2AE42E2DB70BDF8B505464E
:1011800001210820FFF736FB4FF48050ADF8000036
:1011900048208DF8030003208DF80200694661485D
:1011A000FFF78CF8002618E04FF480415D48FFF708
:1011B00034F94FF480415B48FFF72DF94FF480512B
:1011C0005848FFF70EF920B16006040E44F0010400
:1011D00001E06006040E701CC6B2AE42E4DB4FF4C0
:1011E00080415048FFF717F94FF48050ADF80000E8
:1011F00010208DF8030003208DF80200694649484D
:10120000FFF75CF82046F8BD70B504460D46681E31
:101210008006050E4FF480414248FFF7FCF84FF47A
:1012200000414048FFF7F9F80321C020FFF778FE9E
:101230006906080E0721FFF773FE0820FFF79EFFDF
:1012400020700820FFF79AFF60704FF40041354886
:10125000FFF7E1F870BD2DE9F04105460E4617464F
:10126000701E8006060E4FF480412E48FFF7D3F81B
:101270004FF400412B48FFF7D0F80321C020FFF7BF
:101280004FFE7106080E0721FFF74AFE4FF00008D7
:10129000002410E00820FFF771FF28550820FFF711
:1012A0006DFF611C685408F1010000F0FF08601C2C
:1012B000C4B2601CC4B2B845ECDB4FF4004119481D
:1012C000FFF7A9F8BDE8F08170B505464FF48041FD
:1012D0001448FFF7A0F84FF400411248FFF79DF8BB
:1012E0000321C020FFF71CFE07210020FFF718FE96
:1012F000002600240EE00820FFF740FF28550820B4
:10130000FFF73CFF611C6854701CC6B2601CC4B27D
:10131000601CC4B2182EEEDB4FF400410148FFF709
:101320007AF870BD000C014070B504460D46601E91
:101330008006040E4FF40041B148FFF76EF8032118
:10134000A020FFF7EDFD6106080E0721FFF7E8FD7D
:1013500028780821FFF7E4FD68780821FFF7E0FD11
:101360004FF40041A648FFF756F870BD2DE9F04153
:1013700005460C461646681E80064FEA10684FF474
:1013800000419F48FFF749F80321A020FFF7C8FD5F
:101390004FEA4861080E0721FFF7C2FD00270BE066
:1013A00020780821FFF7BCFD641C20780821FFF796
:1013B000B7FD641C781CC7B2B742F1DB4FF40041A3
:1013C0008F48FFF728F8BDE8F0812DE9F047074680
:1013D0000C4690461D46781E80064FEA10692DB9CE
:1013E0004FF400418648FFF718F804E04FF400611D
:1013F0008348FFF712F80321A020FFF791FD4FEA81
:101400004961080E0721FFF78BFD00260AE060788E
:101410000821FFF790FE20780821FFF78CFEA41C1E
:10142000701CC6B24645F2DB2DB94FF4004174483A
:10143000FEF7F1FF04E04FF400617148FEF7EBFFA7
:10144000BDE8F08770B504460D462DB94FF4004154
:101450006B48FEF7E2FF04E04FF400616848FEF7D6
:10146000DCFF0321A020FFF75BFD07210020FFF731
:1014700057FD00260AE060780821FFF75CFE20781F
:101480000821FFF758FEA41C701CC6B2182EF2DB10
:101490002DB94FF400415A48FEF7BDFF04E04FF468
:1014A00000615748FEF7B7FF70BD2DE9F0470646CB
:1014B0000C46602C7DDD0025002773E05148008834
:1014C000844205D0FFF750FDFFF7A7FDBDE8F08788
:1014D00004EBD47149103039A9424DDAF1190023D7
:1014E00018220120FFF771FF06F13000C119012316
:1014F00018221846FFF769FF04EBD471C5EB6101B0
:10150000C1F13001182920DDA04604EBD871C5EBEC
:101510006101C1F11801CAB2A14604EBD971C5EB52
:101520006101491CC8B200233146FFF74EFF04EBAE
:10153000D870C5EB6000C0F1180006EB4001012334
:1015400018221846FFF741FF20E0A04604EBD871AF
:10155000C5EB6101C1F13001CAB2A14604EBD971FA
:10156000C5EB6101C1F13001C1F11901C8B201231C
:101570003146FFF72AFF09E0F0190021FFF762FF6B
:1015800006F13001C8190121FFF75CFF6423002236
:101590001146104601F066FD681C85B2781C87B2C2
:1015A000781C87B204EBD471B5EB610F86DB24E0C5
:1015B000FFE7214604EBD1725210C2F1300000EB7C
:1015C000D0725210521C95B2A046E11704EB9171F3
:1015D000C1F38702E8B200233146FFF7F6FEE017B9
:1015E00004EB9070C0F38702A14604EBD97006EBC0
:1015F000600101231846FFF7E8FE00BF66E7000020
:10160000000C01401C00002008B501210820FFF754
:10161000F1F84FF46070ADF8000010208DF8030071
:1016200003208DF802006946C748FEF747FE4020B8
:10163000ADF8000048208DF8030003208DF802006B
:101640006946C148FEF73AFE8021BF48FEF7E3FE37
:101650004FF48071BC48FEF7DEFE4FF40071BA48CB
:10166000FEF7D9FE08BD70B50446002519E004F068
:10167000800020B18021B448FEF7CDFE03E0802138
:10168000B148FEF7CAFE6006040E4FF48071AE4802
:10169000FEF7C3FE4FF48071AB48FEF7BCFE681C3A
:1016A000C5B2082DE3DB70BD70B500244FF4807126
:1016B000A548FEF7B0FE002516E04FF48071A24861
:1016C000FEF7ABFE6006040E40219F48FEF789FE40
:1016D00010B1601CC4B200E0E4B24FF480719A48CB
:1016E000FEF799FE681CC5B2082DE6DB204670BDEA
:1016F0002DE9F04780460D4616461F46DDF820903E
:101700004FF400719048FEF788FE4FF480718E48C8
:10171000FEF783FE0320FFF7A6FF4046FFF7A3FF77
:101720002846FFF7A0FF3046FFF79DFF002404E0A6
:10173000FFF7BAFF3855601CC4B24C45F8DB4FF4D4
:1017400000718148FEF767FEBDE8F0872DE9F041A2
:1017500088B006460D462021684601F00CFE4FF089
:10176000000800240EE0305D0DF81400284605EB5B
:10177000D07104EB6101725C6100491C0DF801201D
:10178000601CC4B205EBD571B4EB610FEBDB002438
:1017900016E000270CE04FEA48604FEA10681DF899
:1017A0000400384100F0010040EA0808781CC7B284
:1017B000082FF0DB0DF804804FF00008601CC4B265
:1017C000AC42E6DB2A466946304601F0BBFD08B074
:1017D000BDE8F0812DE9F84F05460E4600240027AC
:1017E000ABE0285DB02839DB285DF72836DC601CCB
:1017F000285CA12832DB285DB0385E21484353497C
:101800000860601C285C00F2AD20096808444F495C
:101810000860084600684001086008460068C0F398
:10182000074808460088C0F30729084690F800A03A
:1018300020200090102000FB046352464946404699
:10184000FFF756FF102101FB04602021FFF77EFF08
:10185000A01CC4B207F1200087B26EE0285DA12869
:1018600038DB285DA32835DC601C285CA12831DB2F
:10187000285DA1385E21484334490860601C285C1B
:10188000A1380968084431490860084600684001E9
:10189000086008460068C0F3074808460088C0F39F
:1018A0000729084690F800A020200090102000FB97
:1018B0000463524649464046FFF71AFF102101FBD8
:1018C00004602021FFF742FFA01CC4B207F12000F2
:1018D00087B232E0285D20282DDB285D7E282ADCB7
:1018E000285D203819490860084600680001086032
:1018F000084600681649084414490860084600680C
:10190000C0F3074808460088C0F30729084690F846
:1019100000A01020F3195246494600904046FFF7B8
:10192000E7FEF0191021FFF711FF601CC4B207F1A8
:10193000100087B201E0601CC4B2285D00283FF7A8
:1019400050AF3846BDE8F88F000C0140140000206D
:1019500080CF030008B54FF4A060FFF767F925209A
:101960008DF8000000208DF801008DF802000120A4
:101970008DF803006846FFF75EF908BD00B585B035
:10198000012144F20400FEF735FF4FF40070ADF87A
:10199000100018208DF8130003208DF8120004A900
:1019A0003A48FEF78BFC4FF48060ADF8100004203D
:1019B0008DF8130004A93548FEF780FC4FF4E130A0
:1019C00000900020ADF80400ADF80600ADF8080066
:1019D000ADF80C000C20ADF80A0069462C48FEF763
:1019E000B6FF012240F225512948FFF72AF80121CC
:1019F0002748FFF71AF8FFF7ADFF05B000BD10B597
:101A0000044621462248FFF778F800BF802120488D
:101A1000FFF7CAF80028F9D010BD10B50446202100
:101A20001B48FFF7C1F808B9002010BD1848FFF7A0
:101A300068F820700120F8E708B5002000900AE05F
:101A400004E09DF800101248FFF757F86846FFF7CA
:101A5000E4FF0028F5D1F3E710B525210C48FFF786
:101A6000D5F80B48008800F0200070B10848001D30
:101A700000880849084A1278885407480078401CB2
:101A80000549087001200549087010BD0008014093
:101A900000380140C00900201F0000202000002065
:101AA000FFF7DCF93EE0DB48007814281ADA4FF43F
:101AB0000051D948FEF7B1FC6423002211461046BC
:101AC00001F0D0FA4FF40051D348FEF7A4FC642390
:101AD00000221146104601F0C5FACE480078401C9D
:101AE000CC4908704FF40051CB48FEF796FC0A230E
:101AF00000221146104601F0B5FAC84800680228D5
:101B000010D10020C54908604FF4A061C44801F01D
:101B100032FCC349C348FFF75DFEC349088001207A
:101B2000BE490860BFE7FFF799F90EE0BB480068BF
:101B3000012804D1BC480188B948FFF7B6FC0A2344
:101B400000221146104601F08DFAEFE710B502466B
:101B50000B460021002000BF03E0545C60404C1C99
:101B6000E1B29942F9DB10BD10B5B0480078012808
:101B70005FD1AF480078012802D0022814D107E0D5
:101B8000AC480078A52802D00020A94908700BE0D5
:101B9000A8480078A52803D1A6484078A52802D0F7
:101BA0000020A349087000BF00BFA14800780228A8
:101BB0003CDDA048807890B39E480078A52803D1EA
:101BC0009C484078A52803D00020994908702DE052
:101BD0009848817896480078C01E814226DC954856
:101BE000C078012816D180218E4801F0C4FB9148AD
:101BF0008078801E90490870084602788D49091D3A
:101C0000884801F09FFB0220844908609020FFF77C
:101C1000F6FE00BF00BF00208549087006E0FFE720
:101C20000020834908706720FFF7E9FE00207F4904
:101C3000087010BDFFF712F9EBE04FF400617F4828
:101C4000FEF7CFFB012808D101037C48FEF7C9FB52
:101C5000012802D1FFF788FFD5E04FF400617748F3
:101C6000FEF7BFFB002879D16423002211461046FD
:101C700001F0F8F900BF4FF400617048FEF7B1FBC6
:101C80000028F8D0642300221146104601F0EAF93A
:101C9000002405E06A49085DFFF7B1FE601CC4B28C
:101CA000032CF7D3642300221146104601F0DAF921
:101CB000002405E06349085DFFF7A1FE601CC4B283
:101CC000062CF7D3642300221146104601F0CAF90E
:101CD0008021544801F04FFB00240FE05548005D7F
:101CE0004D2809D15349601C085C412804D1A01C2F
:101CF000085C432800D105E0601CC4B24C48007861
:101D00008442EBDB00BF4A480078844200DB0024B9
:101D100047480078021B47480119424801F012FB6E
:101D2000202043490978091B3E4A505402203B4970
:101D30000860002405E04449085DFFF760FE601C70
:101D4000C4B2082CF7D3642300221146104601F0D8
:101D500089F900203649087055E0FFE74FF48051BB
:101D60003648FEF73EFB00284DD164230022114681
:101D7000104601F077F900BF4FF400612F48FEF7DD
:101D800030FB0028F8D0642300221146104601F0F1
:101D900069F9002405E02A49085DFFF730FE601C60
:101DA000C4B2032CF7D3642300221146104601F07D
:101DB00059F9002405E02549085DFFF720FE601C65
:101DC000C4B20A2CF7D3642300221146104601F056
:101DD00049F9002405E01C49085DFFF710FE601C6E
:101DE000C4B2082CF7D3642300221146104601F038
:101DF00039F90C480F490988018002200749086019
:101E000000200B4908700A2300221146104601F0F9
:101E100029F912E7400000200010014018000020BE
:101E200040040020400900201C0000202000002069
:101E30001F000020C00900201E00002000080140F3
:101E40002100002039000020300000202500002063
:101E50000246002005E011F8013B02F8013B431C5B
:101E6000D8B20B78002BF6D1137070472DE9F041F2
:101E700005460E461446002714B90020BDE8F0813F
:101E80001DB9042020700020F8E71EB90C20207036
:101E90000020F3E7FD480078002803DD11202070C2
:101EA0000020EBE72878012808D0022807D0032873
:101EB00002D0042804D100E000BF00BF00BF03E04F
:101EC000012020700020D9E700BF01F093F90746F8
:101ED00005F10F013046FFF7BBFF8046384601F0A1
:101EE0008DF9002020704046C8E70146002002E03E
:101EF000491C421CD0B20A78002AF9D170472DE95A
:101F0000F04105460E4614464FF000080CB9BDE8F6
:101F1000F08115B904202070F9E716B90C20207063
:101F2000F5E7DA480078002802DD12202070EEE79D
:101F30002878012808D0022807D0032802D00428D6
:101F400004D100E000BF00BF00BF02E0012020700C
:101F5000DDE700BF01F04EF980463046FFF7C5FFD0
:101F600007460F2F05DD404601F048F90B20207091
:101F7000CDE7314605F10F00FFF76AFF404601F05B
:101F80003DF90020207000BFC1E77CB5002514E0BA
:101F90006946284600F056FF064666B9BC4850F828
:101FA000254044B1012C06D0D4E9020100EB8100A8
:101FB000A0630198E063681CC5B21F2DE8DD7CBDFD
:101FC000002402E0C82001F01DF8B2480078002883
:101FD000F8D0B14800686421B0FBF1F0AE49086068
:101FE0000846006828B90020AC490870FF2000F0BE
:101FF00074FF00BF01F0FEF80446A9480068A94933
:1020000008600020A6490860204601F0F7F8A548BE
:102010000068A1490968B0FBF1F0C0F164009F4974
:10202000087001F03EF9FFF7B0FF642000F0EAFF0E
:10203000E0E700B587B00320002180229A4BCDE96C
:102040000132CDE903104FF6FE701E23974A00902F
:10205000AFF2930000F0CDFC06AA95A11E2000F07F
:1020600050FE07B000BD002400BF01F0C3F80446D5
:102070008B480068401C8A490860204601F0BEF881
:1020800001F00EF9F1E700B587B0032000218022AE
:102090008B4BCDE90132CDE903104FF6FF701F23C2
:1020A000884A0090AFF2410000F0A3FC06AA86A186
:1020B0001F2000F026FE07B000BD04E0002200F85B
:1020C000012B4A1E91B20029F8DC704730B54FF45D
:1020D000A0718148FFF7F1FF7F4B03F12005002439
:1020E0000AE0002018705D603F20D8730021197449
:1020F00020332035601C84B2092CF2DB00201870DC
:1021000058603F20D87300211974734873490860E0
:1021100030BD30B54FF4B4617148FFF7CEFF802178
:102120005B48FFF7CAFF6E4B03F1500500240AE03D
:102130005D613F2083F8400000214120C1545033AD
:102140005035601CC4B2112CF2D3002058613F20DE
:1021500083F8400000214120C154002061490860FB
:102160005F486149086030BD0022604B1A706049C9
:10217000002004E0002201F8012B421CD0B2042808
:10218000F8DB00225B4B1A705B4B1A705B4B1A60DA
:102190005B4B1A60704700205A4908603B49087041
:1021A00059490870594908705949087059490860D7
:1021B0003B4908603B490860374908603549087069
:1021C000704710B501F068F8FFF7E5FFFFF7CCFFA7
:1021D000FFF79FFFFFF77AFFFFF755FFFFF729FF94
:1021E00001F05BF810BD4A480078012808D1274863
:1021F0000078FF2804D225480078401C2349087045
:1022000070474549394A1278885C3949095C424A25
:10221000515C01EBC001384A1170704710B50024C1
:102220003B480078012830D100F0E4FF044617480D
:102230000078002804DD15480078401E1349087016
:1022400012480078F0B930480078D8B9FFF7D9FFC4
:102250002948007827490978884213D00C48264934
:10226000097850F821002549086008460068C06ACE
:10227000401C0968C86227480068401C254908605E
:1022800000F0D4FF204600F0B9FF10BD5900002037
:10229000800F002058000020500000204C0000203B
:1022A0006400002054000020800B00207C0D0020E2
:1022B00075432F4F532D494920537461740000001A
:1022C000800D00207C0F002075432F4F532D49496E
:1022D0002049646C65000000400A0020480000208E
:1022E00000100020740000206C0000205D00002021
:1022F0005E0000205B0000205C00002070000020D9
:10230000680000207C0000205A00002063000020AC
:102310006200002044000020E433000810B50024CF
:10232000FE480078012811D100F064FF0446FC4803
:10233000007840B9FB480078FF2804D2F9480078BB
:10234000401CF8490870204600F058FF10BD10B539
:10235000002400F04FFF0446F1480078F0B9F1483E
:102360000078D8B9FFF74DFFEF480078EF490978BA
:10237000884213D0EE48EC49097850F82100ED4925
:10238000086008460068C06A401C0968C862EA48DC
:102390000068401CE849086000F043FF204600F058
:1023A0002DFF10BD10B50024DC480078012822D193
:1023B00000F020FF0446DB480078002818DDD948EB
:1023C0000078401ED74908700846007860B9D448A4
:1023D000007828B9204600F011FFFFF7B8FF0AE0A7
:1023E000204600F00BFF06E0204600F007FF02E069
:1023F000204600F003FF10BD10B5C848007890B922
:10240000FFF7FFFEC8480078C8490870C848C649A9
:10241000097850F82100C749086008460068C74994
:10242000086000F0EEFE10BD10B50024022000F0A0
:10243000E9FD00F0DFFE04460020C14908602046A7
:1024400000F0DCFE642000F0DDFD00F0D3FE044669
:10245000BB480068BB4908600120BB4908702046A2
:1024600000F0CCFE10BD70B5002600F06AFF00F051
:10247000C1FE0646B5480068401CB44908603046B5
:1024800000F0BCFEA5480078012853D1B048007880
:1024900020B1012804D0022809D103E001250BE076
:1024A000002509E001250120A949087004E0012563
:1024B0000020A749087000BF00BF05B970BDA5483E
:1024C000046833E000F096FE0646208C50B3208C62
:1024D000401E80B2208428BB94F8220000F0370010
:1024E00040B114F8220F20F03700207001206070F6
:1024F000223C02E0002084F8230094F8220000F03F
:10250000080078B92634A07893490978084392499D
:10251000087020789149085C6178084314F82619FE
:102520008E4A50546469304600F068FE94F82400E6
:102530001F28C7D100BFC1E74FF48F7070477047A5
:1025400010B590F8262001F10B039B5C90F8274012
:10255000A34301F10B04A35423469B5C23B98B7A5C
:1025600090F82840A3438B7210BD2DE9F04F05462B
:102570000F4690469946A87A79490E5C05F10B0002
:10258000805D11F800B00BEBC60000F0FF0A684850
:1025900050F82A40002024F8200F00BFA07820EA3D
:1025A0000800A07084F80390A078203C00F0080098
:1025B00068B994F8280068490978084366490870A2
:1025C0006648805D94F82710084364498855294679
:1025D0002046FFF7B5FF5046BDE8F08F10B5574ACB
:1025E0001268D061554A126892F8263000F10B0249
:1025F000D25C524B1B6893F827301A434F4B1B6831
:1026000093F8264000F10B031A55827A4B4B1B6856
:1026100093F828301A438272484A126892F82610BA
:102620004E4A525C454B1B6893F827309A434B4BFC
:102630005A541A46525C42B9404A126892F82830FD
:10264000454A12789A43444B1A7010BD0023837296
:1026500000F10B01002204E0002301F8013B531CB0
:10266000DAB2042AF8DB704705E011F8013B00F804
:10267000013B531E9AB2002AF7DC70472DE9F84F50
:1026800005460E4617469846DDE90BABDDF8289067
:102690000020009000F0AEFD009032480468002C4D
:1026A0007ED054F8140F2F490860009800F0A6FD62
:1026B00044F8146C25740020A073E073A08144F8E2
:1026C00010AC44F8089C44F80C7C24F804BC24F8B2
:1026D000028C6075E810A07405F007006074A17C9E
:1026E000012088402075617C01208840E074002032
:1026F000A060A0612062E0616062A0623F2084F877
:102700002C00143C002141200155204600F018FE09
:10271000204600F0C3FD00F06DFD25E062000020C2
:10272000590000205A0000205C0000205B000020BF
:10273000800F00207000002044000020680000206E
:102740006400002050000020580000207C00002081
:1027500078000020740000205D0000205E00002052
:10276000E43300086C0000200090194840F8254030
:102770001848006860610020A0611648006810B128
:10278000144800688461134804602634A078124914
:10279000097808431049087020781049085C00E067
:1027A00010E06178084314F826190C4A50540C487C
:1027B0000078401C0A490870009800F01FFD0020B6
:1027C000BDE8F88F009800F019FD4220F8E70000FE
:1027D000800F0020740000205D0000205E000020BB
:1027E000630000202DE9FF5F81460F460020009026
:1027F000B9F11F0F06DBB9F1FF0F03D02A2004B097
:10280000BDE8F09F1F2F01DB2A20F8E700F0F2FC63
:102810000090F84850F8270020B1009800F0EEFC36
:102820002820ECE7B9F1FF0F03D1F348006890F8D6
:102830002490F04850F8294024B9009800F0DEFCBC
:102840002920DCE7012C04D1009800F0D7FC4320BC
:10285000D5E74FEAE70807F007000390012000FAE8
:1028600008F000F0FF0A01210398814001F0FF0BFE
:102870000020E04941F82900084640F8274014F8B4
:10288000266FA07802906078263C0190DB48815D3D
:1028900001980140E1B1D948805D01998843D74949
:1028A00088550846805D28B9D54800780299884344
:1028B000D3490870D248007840EA0A00D04908702D
:1028C000CE4810F8080040EA0B00CC4901F8080097
:1028D000E569E5B105F10B00805D0199884305F1DB
:1028E0000B0188550846805D18B9A87A029988437B
:1028F000A872A87A40EA0A00A87205F10B0010F845
:10290000080040EA0B0005F10B0101F8080084F80B
:10291000247084F82680039884F8250084F828A081
:1029200084F827B0009800F069FCB64800780128C8
:1029300001D1FFF70CFD002061E72DE9FE4F0646AF
:102940000F4690461C464FF000091F2C02DD2A203E
:10295000BDE8FE8F00F04EFC8146AB4800780028B1
:1029600004DD484600F04AFC3C20F1E7A14850F85D
:10297000240060BB01209F4941F82400484600F034
:102980003DFC002342463946304600F08BFC82462F
:1029900000200090019003460246514602902046D6
:1029A000FFF76CFE054635B99648007801280CD132
:1029B000FFF7CDFC09E000F01DFC814600208D49A9
:1029C00041F82400484600F019FC2846C0E7484674
:1029D00000F014FC2820BBE702F0010343B102F031
:1029E00002032BB102E0491E002308C00029FAD1DE
:1029F00070472DE9F04F85B081468A4693461C46C4
:102A0000DDE90F78129D002003901F2C03DD2A20A2
:102A100005B0BDE8F08F00F0EDFB03907A48007838
:102A2000002804DD039800F0E9FB3C20F0E7714842
:102A300050F8240088BB01206E4941F82400039817
:102A400000F0DCFB2A4641463846FFF7C5FF2B461F
:102A50005A465146484600F025FC04901198CDE9AD
:102A6000008002953A4620460E9B0499FFF706FE29
:102A7000064636B96348007801280CD1FFF767FC99
:102A800009E000F0B7FB039000205A4941F8240008
:102A9000039800F0B3FB3046BAE7FFE7039800F075
:102AA000ADFB2820B4E770B50546002656480078EF
:102AB000002801DD402070BD1F2D01D13E20FAE726
:102AC0001F2D03DBFF2D01D02A20F4E700F092FB3D
:102AD0000646FF2D03D14848006890F82450454829
:102AE00050F8254024B9304600F088FB4320E2E747
:102AF000012C04D1304600F081FB3D20DBE714F8C7
:102B0000260F3E49085C6178884321783B4A50543F
:102B100014F826091146085C30B994F82810384892
:102B20000078884336490870E06918B12046E169A9
:102B3000FFF706FD0020208484F8220084F823009B
:102B400032480078FF2804D230480078401C2F49D2
:102B50000870304600F052FBFFF7F1FC00F04AFB32
:102B600006462A480078002804DD28480078401EE0
:102B700026490870204600F092FB25480078401E48
:102B80002349087000201B4941F82500A06930B98D
:102B90000020616988611F496069086005E0D4E927
:102BA00005014861D4E9051088611B48006860612F
:102BB000194804603F2084F840000021412001555D
:102BC000304600F01BFB0F480078012801D1FFF7C9
:102BD000BEFB00206FE72DE9F041044600271F2CC3
:102BE00002D13E20BDE8F0811F2C17DBFF2C15D051
:102BF0002A20F7E7800F0020680000205E000020F8
:102C00005D00002062000020590000205A000020D2
:102C100063000020740000206C000020FF2C0BD10A
:102C200000F0E8FA0746F148006890F82960384655
:102C300000F0E4FA3046D5E700F0DCFA0746EC484D
:102C400050F8245025B9384600F0D8FA4320C9E797
:102C5000012D04D1384600F0D1FA3D20C2E73F20D3
:102C600085F82900384600F0C9FA0020BAE72DE9B6
:102C7000F04705460F4614464FF0000814B90020EF
:102C8000BDE8F0871F2D05DDFF2D03D02A20207021
:102C90000020F5E71FB90C2020700020F0E7D54890
:102CA0000078002803DD112020700020E8E700F004
:102CB000A1FA8046FF2D03D1CC48006890F824503B
:102CC000CB4850F8256036B9404600F097FA4320CB
:102CD00020700020D4E7012E06D1404600F08EFA85
:102CE000432020700020CBE706F140013846FFF773
:102CF000AFF88146404600F081FA00202070484637
:102D0000BEE72DE9F04705460F4614464FF000098F
:102D10000CB9BDE8F0871F2D04DDFF2D02D02A205D
:102D20002070F6E717B90C202070F2E7B148007860
:102D3000002802DD12202070EBE700F05BFA8146EC
:102D4000FF2D03D1A948006890F82450A84850F8F6
:102D500025602EB9484600F051FA43202070D8E78C
:102D6000012E05D1484600F049FA43202070D0E7F3
:102D70003846FFF7BAF88046B8F10F0F05DD484630
:102D800000F03CFA41202070C3E7394606F14000CC
:102D9000FFF75EF8484600F031FA0020207000BFCF
:102DA000B7E770B5054600261F2D01DB2A2070BD50
:102DB00000F020FA06468E4850F8254024B93046E7
:102DC00000F01CFA4620F2E7012C04D1304600F056
:102DD00015FA4320EBE794F8220000F0080060B3F6
:102DE00014F8220F20F00800207014F82209F8B916
:102DF000208CC8B92634A0787F49097808437E49D9
:102E0000087020787D49085C6178084314F8261919
:102E10007A4A5054304600F0F1F979480078012898
:102E200009D1FFF794FA06E0304600F0E7F902E036
:102E3000304600F0E3F90020B9E7304600F0DEF953
:102E40004420B4E72DE9F04706460C464FF0000A4F
:102E50001F2E04DDFF2E02D02A20BDE8F0870CB91A
:102E60000920FAE700202060606000F0C3F9824684
:102E7000FF2E03D15D48006890F824605C4850F84C
:102E8000265025B9504600F0B9F94320E5E7012D59
:102E900004D1504600F0B2F94320DEE7287C00F070
:102EA000010020B9504600F0A9F94520D5E70027D8
:102EB000D5F80C90D5F80880504600F09FF900E056
:102EC0007F1C58F8041B0029FAD0B8002060A9EB39
:102ED0000700800060600020BFE72DE9F041054653
:102EE0004FF000081F2D02D14720BDE8F0811F2DB3
:102EF00003DBFF2D01D02A20F7E700F07BF98046A5
:102F0000FF2D05D13948006890F82450012608E0CB
:102F10003648006890F82400A84201D1012600E05C
:102F20000026334850F8254024B9404600F066F9A1
:102F30004820DAE7012C04D1404600F05FF9432035
:102F4000D3E794F826702D48C05D94F82710884385
:102F50002A49C8550846C05D30B994F8281026485B
:102F6000007888432449087094F8220040F0080053
:102F700084F82200404600F041F9012E01D1FFF70C
:102F8000E6F90020B1E72DE9F04104460E4600279E
:102F90001F2C04DDFF2C02D02A20BDE8F0810EB9E1
:102FA0000920FAE700F026F90746FF2C03D10F4865
:102FB000006890F824400E4850F8245025B938464F
:102FC00000F01CF92920E8E7012D04D1384600F073
:102FD00015F94320E1E7502229463046FFF744FB2C
:102FE000384600F00BF90020D7E700006800002009
:102FF000800F0020590000205D0000205E000020AE
:103000006200002070B5054600267448007800284C
:1030100000DD70BD002D23DD00F0ECF806467048A1
:10302000006890F826406F48005D6D49096891F886
:10303000271088436B4908550846005D40B9684829
:10304000006890F82810684800788843664908703E
:10305000634800680584304600F0D0F8FFF777F940
:1030600000BFD6E72DE9F04780460D4616461C46C0
:103070005A480078002802DD5520BDE8F087B8F1F5
:10308000000F04D11DB916B90CB95420F5E73B2D3A
:1030900001DD5120F1E73B2E01DD5220EDE7B4F5D3
:1030A0007A7F01DB5320E8E74FF47A7060434FF4F6
:1030B0007A71B0FBF1F14FF4616008FB00F0C5EBF1
:1030C000051200EB8200304400EB4002C2EBC0105E
:1030D00001EBC0074FEA1749BFB23846FFF792FF2E
:1030E0000BE04FF40040FFF78DFF4FF40040FFF777
:1030F00089FFA9F101001FFA80F9B9F1000FF0DC96
:103100000020BAE770B5054600261F2D01DB2A20F6
:1031100070BD00F06FF80646344850F8254024B9D9
:10312000304600F06BF84320F2E7012C04D1304622
:1031300000F064F84320EBE7208C20B9304600F023
:103140005DF85020E4E70020208494F8220000F08D
:10315000370040B114F8220F20F037002070012012
:103160006070223C02E0002084F8230094F82200E2
:1031700000F00800A8B92634A0781B490978084354
:103180001949087020781749085C6178084314F8D9
:103190002619144A5054304600F030F8FFF7D7F89B
:1031A00002E0304600F02AF80020B1E770B50025B3
:1031B00000F020F805460E480468284600F01EF886
:1031C000204670BD70B50446002500F013F8054692
:1031D00007480460284600F011F870BD590000202F
:1031E000680000205E0000205D000020800F0020AD
:1031F0007C000020EFF3108072B6704780F31088D7
:1032000070471D484FF0FF010170002080F30988CE
:103210001A48012101701A484FF08051016062B6CE
:10322000FEE717484FF080510160704714484FF097
:1032300080510160704772B6EFF3098028B12038E1
:1032400080E8F00F0F490968086000B50E48804714
:103250005DF804EB0D480E490A78027009480D49E3
:103260000A680260106890E8F00F203080F3098847
:103270004EF0040E62B6704722ED00E062000020BE
:1032800004ED00E0680000203F3300085B000020F0
:103290005C00002070000020704770477047704746
:1032A0007047704770B5044610464FF08075056052
:1032B000051F28462C606FF00106051F28462E606A
:1032C0004FF01236051F28462E604FF00336051FBB
:1032D00028462E604FF00236051F28462E607610D5
:1032E000051F28462E60051F284629604FF011361D
:1032F000051F28462E604FF01036051F28462E6009
:103300004FF00936051F28462E604FF00836051F7E
:1033100028462E604FF00736051F28462E604FF0D6
:103320000636051F28462E604FF00536051F284635
:103330002E604FF00436051F28462E6070BD704782
:103340007047704740EA01039B0703D009E008C9B2
:10335000121F08C0042AFAD203E011F8013B00F85A
:10336000013B521EF9D27047D2B201E000F8012BA6
:10337000491EFBD270470022F6E710B513460A46F5
:1033800004461946FFF7F0FF204610BD064C074DD6
:1033900006E0E06840F0010394E807009847103425
:1033A000AC42F6D3FCF7C8FEE4340008043500084C
:1033B00002E008C8121F08C1002AFAD170477047FE
:1033C000002001E001C1121F002AFBD1704700005C
:1033D00000A24A0400A24A0400A24A0400512502A5
:1033E00000A24A04000001000200010003000100E5
:1033F00002000100040001000200010003000100BE
:1034000002000100050001000200010003000100AC
:10341000020001000400010002000100030001009D
:10342000020001000600010002000100030001008B
:10343000020001000400010002000100030001007D
:10344000020001000500010002000100030001006C
:10345000020001000400010002000100030001005D
:10346000020001000700010002000100030001004A
:10347000020001000400010002000100030001003D
:10348000020001000500010002000100030001002C
:10349000020001000400010002000100030001001D
:1034A000020001000600010002000100030001000B
:1034B00002000100040001000200010003000100FD
:1034C00002000100050001000200010003000100EC
:1034D00002000100040001000200010003000100DD
:1034E00002000100043500080000002080000000F8
:1034F000B033000884350008800000202017000049
:10350000C0330008000000000102030401020304AC
:103510000607080902040608000000000000000079
:1035200000000000002B2B2B0041542B444546414A
:10353000554C540041542B52455345540041542B93
:103540004D414300000000000000000000000000AA
:10355000000000000000000000000000000000006B
:10356000000000000000000000000000000000005B
:10357000000000000000000000000000000000004B
:043580000000000047
:0400000508000147A7
:00000001FF
