:020000040800F2
:10000000000400204701000825020008270200081C
:100010002B0200082F020008330200080000000035
:10002000000000000000000000000000370200088F
:1000300039020008000000003B0200083D020008F1
:1000400067010008670100086701000867010008F0
:1000500067010008670100086701000867010008E0
:1000600067010008670100086701000867010008D0
:1000700067010008670100086701000867010008C0
:1000800067010008670100086701000867010008B0
:1000900067010008670100086701000867010008A0
:1000A0006701000867010008670100086701000890
:1000B0006701000867010008670100086701000880
:1000C0006701000867010008670100086701000870
:1000D0006701000867010008670100086701000860
:1000E0006701000867010008670100086701000850
:1000F0006701000867010008670100086701000840
:10010000670100086701000867010008670100082F
:10011000670100086701000867010008670100081F
:10012000670100086701000867010008670100080F
:10013000DFF80CD000F0E6FE00480047750100082B
:1001400020020020704708488047084981F308884A
:1001500007480047FEE7FEE7FEE7FEE7FEE7FEE7AB
:10016000FEE7FEE7FEE7FEE745010008200200206B
:1001700031010008002400F068FE00F061F800F092
:10018000ABF80CA000F0F0FE00BF0CE072211348A9
:1001900000F0CFFD124908600846016811A000F088
:1001A000E3FE601CC4B2722CF0DB16A000F0DCFE93
:1001B00000BFFEE70D0A20D5E2CAC7D2BBB8F620C1
:1001C00043524328D1ADBBB7C8DFD3E0D0A3D1E9B8
:1001D00029CAB5D1E9200D0A000000006812000804
:1001E000000000200D0A33322D626974204352430F
:1001F00020D0A3D1E9C2EBCEAA3A305825580D0A37
:10020000000000000D0A43524328D1ADBBB7C8DF40
:10021000D3E0D0A3D1E929B2E2CAD4CDEAB1CF0D5F
:100220000A000000704700BFFEE700BFFEE700BF06
:10023000FEE700BFFEE77047704770477047000059
:1002400000B585B0012144F2040000F049FB4FF4F1
:100250000070ADF8100018208DF8130003208DF801
:10026000120004A91A4800F0A5F84FF48060ADF818
:10027000100004208DF8130004A9154800F09AF826
:100280004FF4E13000900020ADF80400ADF8060016
:10029000ADF80800ADF80C000C20ADF80A00694676
:1002A0000C4800F0CEFB01210A4800F038FC05B0F4
:1002B00000BD70B504460D46E1B2064800F097FC5B
:1002C00000BF0448008810F0800FFAD0204670BDAF
:1002D000000801400038014010B50121402000F025
:1002E000F2FA10BD10B50446C549601A8C422FD0F1
:1002F00009DCC448201810D0B0F5806F16D0B0F5D6
:10030000006F4AD11BE0B0F5806F2AD0B0F5006FC6
:1003100030D0B0F5406F40D135E00121042000F02D
:10032000F9FA0021042000F0F5FA37E00121082055
:1003300000F0F0FA0021082000F0ECFA2EE0012194
:10034000102000F0E7FA0021102000F0E3FA25E089
:100350000121202000F0DEFA0021202000F0DAFA4E
:100360001CE00121402000F0D5FA0021402000F0DF
:10037000D1FA13E00121802000F0CCFA0021802086
:1003800000F0C8FA0AE00121080200F0C3FA0021D7
:100390004FF4807000F0BEFA00E000BF00BF10BD57
:1003A00010B50121084600F0B5FA0021012000F047
:1003B000B1FA10BD2DE9F0410246002500260020CB
:1003C00000230024002791F803C00CF00F0591F8DA
:1003D00003C01CF0100F03D091F802C04CEA0505D1
:1003E00091F800C0BCF1000F31D0146800202BE060
:1003F0004FF0010C0CFA00F3B1F800C00CEA030650
:100400009E4220D183004FF00F0C0CFA03F7BC433F
:1004100005FA03FC4CEA040491F803C0BCF1280F70
:1004200006D14FF0010C0CFA00FCC2F814C00AE02F
:1004300091F803C0BCF1480F05D14FF0010C0CFA44
:1004400000FCC2F810C0401C0828D1D31460B1F8D9
:1004500000C0BCF1FF0F34DD546800202EE000F135
:10046000080C4FF0010808FA0CF3B1F800C00CEAD0
:1004700003069E4221D183004FF00F0C0CFA03F7C4
:10048000BC4305FA03FC4CEA040491F803C0BCF138
:10049000280F05D100F1080C08FA0CF8C2F81480F6
:1004A00091F803C0BCF1480F07D100F1080C4FF0E0
:1004B000010808FA0CF8C2F81080401C0828CED3B6
:1004C0005460BDE8F0814FF6FF7101800221817018
:1004D0000421C17070470246002093680B4201D08E
:1004E000012000E0002070470146886880B2704714
:1004F00002460020D3680B4201D0012000E000201A
:1005000070470146C86880B2704701617047416119
:1005100070470AB1016100E041617047C1607047F6
:100520004FF480320A43826181618261826982690B
:10053000704702460020344B18684FF6807318400D
:1005400040EA02100843304B186070472F49C861D9
:100550007047F0B50A4600230024002100252A4EEA
:100560007168C0F3034583B200F44016B6F5401F2E
:1005700008D121F07061244E766826F07066224F13
:100580007E6012E000F48016B6F5801F06D10326C7
:1005900006FA05F4A14341F0706106E0460D36010C
:1005A00003FA06F6B14341F0706122B1460D3601FF
:1005B00003FA06F63143144E7160F0BD30B50022E7
:1005C0008B071C0F0F2303FA04F20F4B08338C1018
:1005D00053F8243093430C4C08348D1044F82530E4
:1005E00023468C1053F824308C07240F00FA04F4AF
:1005F0002343054C08348D1044F8253030BD0000ED
:100600000014014000F8FEBF00000140000020423D
:10061000DC48006840F00100DA490860084640689C
:10062000D9490840D749486008460068D74908407A
:10063000D44908600846006820F480200860084615
:10064000406820F4FE004860002088607047CD4973
:10065000096821F48031CB4A11601146096821F400
:1006600080211160B0F5803F03D0B0F5802F0ED10E
:1006700006E0C449096841F48031C24A116007E0CC
:10068000C049096841F4A021BE4A116000E000BFE2
:1006900000BF704710B501460022002300204A1118
:1006A000012A02D1B74C236806E0022A02D1B54CD8
:1006B000236A01E0B34C636A01F01F0201249440F5
:1006C0001C4201D0012000E0002010BD38B5002000
:1006D00000900024002500BF3120FFF7DBFF054616
:1006E0000098401C00901DB90098B0F5A06FF3D1A0
:1006F0003120FFF7CFFF08B1012400E0002420469D
:1007000038BD014600209F4A106820F0F80040EAFA
:10071000C100106070479E49086070470246002083
:10072000984B586820F47C1042EA01031843954B1B
:100730005860704796490866704701460020914A04
:10074000506820F003000843506070478D484068AF
:1007500000F00C007047014600208A4A506820F0E3
:10076000F00008435060704701460020854A5068F9
:1007700020F4E06008435060704701460020814A41
:10078000506820F4605040EAC1005060704729B1C1
:100790007C4A527A02437B4B5A7204E0794A527A7D
:1007A0008243784B5A7270477A4908607047014615
:1007B0000020744A506820F440400843506070475D
:1007C0000021754A11706F4A82F82010012802D06A
:1007D000042808D103E001216F4A117004E00521CB
:1007E0006D4A117000E000BF00BF70476B490860A0
:1007F00070476449096A0143624A11627047674958
:1008000044390860704730B50021002200240023DD
:100810005C4D6D6805F00C0121B1042905D0082953
:1008200023D105E05E4D056022E05D4D05601FE0CF
:10083000544D6D6805F47012022505EB9242514D3E
:100840006D6805F480341CB9564D554305600BE0C6
:100850004C4D6D6815F4003F03D0524D5543056073
:1008600002E04F4D5543056002E04D4D056000BF6D
:1008700000BF444D6D6805F0F00109094A4D6B5CFD
:100880000568DD4045603F4D6D6805F4E061090A8B
:10089000454D6B5C4568DD4085603A4D6D6805F4FB
:1008A0006051C90A404D6B5C4568DD40C560354DFF
:1008B0006D6805F44041890B3C4D6B5CC568B5FB28
:1008C000F3F5056130BD29B12E4A526902432D4B23
:1008D0005A6104E02B4A526982432A4B5A6170479D
:1008E00029B1284A92690243264B9A6104E0254ABD
:1008F00092698243234B9A61704729B1214AD26998
:100900000243204BDA6104E01E4AD26982431D4B48
:10091000DA61704729B11B4AD2680243194BDA6089
:1009200004E0184AD2688243164BDA60704729B156
:10093000144A12690243134B1A6104E0114A126906
:100940008243104B1A617047144940390860704760
:100950000F49C86470470B49C87170470948406A1D
:1009600040F0807007494862704701460020054A00
:1009700092680A4201D0012000E00020704701493E
:1009800088727047001002400000FFF8FFFFF6FE7B
:1009900000004242D80042422010024080044242FD
:1009A00000127A0000093D0004000020140000201D
:1009B00010B50446D749601A8C422BD006DCD648C5
:1009C000201813D0B0F5806F38D119E0B0F5806FE2
:1009D0002AD0B0F56C4F31D101218803FFF79AFF7F
:1009E00000214FF48040FFF795FF28E001214804E3
:1009F000FFF79DFF00214FF40030FFF798FF1EE046
:100A000001218804FFF793FF00214FF48020FFF7B6
:100A10008EFF14E00121C804FFF789FF00214FF485
:100A20000020FFF784FF0AE001210805FFF77FFFA0
:100A300000214FF48010FFF77AFF00E000BF00BFF5
:100A400010BD2DE9F04786B005460E460024A246AB
:100A500000BF00BF00272F462C8A4CF6FF700440D1
:100A6000F08804432C82AC894EF6F3100440B08821
:100A700031890843718908430443AC81AC8A4FF63D
:100A8000FF400440B0890443AC8201A8FFF7BBFEDD
:100A9000A248874202D1DDF810A001E0DDF80CA0E9
:100AA0000AEBCA0000EB0A1031688900B0FBF1F8CC
:100AB0006420B8FBF0F004012009642101FB1089D7
:100AC000322000EB0910B0FBF1F000F00F000443FE
:100AD0002C8106B0BDE8F0874FF41651016000216B
:100AE0008180C18001810C21418100218181704779
:100AF00010B502460020108A4FF2FF0318400B8801
:100B00004C8823438C882343CC882343184310828A
:100B100010BD0021018041808180C180704721B1DA
:100B2000828942F40052828104E082894DF6FF738B
:100B30001A4082817047F0B5034600240026002544
:100B400000201846C1F3421401F01F06012707FADE
:100B500006F5012C01D10C3004E0022C01D110303B
:100B600000E014301AB107682F43076002E00768FD
:100B7000AF430760F0BD1AB1838A0B43838202E062
:100B8000838A8B4383827047028A4FF6F0731A4040
:100B90000282028A0A430282704782894FF2FF73FF
:100BA0001A40828182890A438281704721B18289F9
:100BB00042F00202828104E082894FF6FD731A40FE
:100BC00082817047028A4FF6DF731A400282028ADE
:100BD0000A430282704721B1028A42F480420282B3
:100BE00004E0028A4BF6FF731A4002827047C1F399
:100BF00008028280704701468888C0F30800704769
:100C0000818941F0010181817047028BD2B2028358
:100C1000028B42EA012202837047028B02F47F4278
:100C20000283028B0A430283704721B1828A42F019
:100C30002002828204E0828A4FF6DF731A408282A9
:100C4000704721B1828A42F01002828204E0828AD7
:100C50004FF6EF731A408282704721B1828A42F0C8
:100C60000802828204E0828A4FF6F7731A40828279
:100C70007047828A4FF6FB731A408282828A0A4347
:100C80008282704721B1828A42F00202828204E0AD
:100C9000828A4FF6FD731A40828270470246002016
:100CA00013880B4201D0012000E000207047CA43A6
:100CB0000280704770B502460B46002400210025D3
:100CC0000020C3F3421503F01F01012606FA01F1CB
:100CD000012D02D19689314006E0022D02D1168AFB
:100CE000314001E0968A31401C12012606FA04F4D4
:100CF0001688344011B10CB1012000E0002070BD15
:100D000010B5002200230A1201249440A3B2DC4350
:100D1000048010BD004C004000BCFFBF0038014003
:100D2000012010498860704701460E480160006844
:100D3000704710B502460B46002100BF04E052F890
:100D40002100084C2060491C9942F8D305480068EE
:100D500010BD044800687047024908717047014897
:100D600000797047003002400CB5002001900090DF
:100D70004748006840F480304549086000BF444857
:100D8000006800F4003000900198401C0190009829
:100D900018B90198B0F5A06FF1D13D48006810F482
:100DA000003F02D00120009001E000200090009858
:100DB000012843D13748006840F0100035490860E9
:100DC0000846006820F0030008600846006840F00C
:100DD000020008602E4840682D4948600846406877
:100DE00048600846406840F48060486008464068B3
:100DF00020F47C1048600846406840F4E8104860E1
:100E00000846006840F08070086000BF2048006815
:100E100010F0007FFAD01E48406820F003001C4903
:100E200048600846406840F00200486000BF18482B
:100E3000406800F00C000828F9D101E000BFFEE78F
:100E40000CBD10B5FFF790FF10BD10B5104800683D
:100E500040F001000E490860084640680E4908400D
:100E60000B494860084600680C490840084908607A
:100E70000846006820F4802008600846406820F496
:100E8000FE00486000208860FFF7DBFF10BD000017
:100E900000100240002002400000FFF8FFFFF6FEB5
:100EA0002DE9F05F0546002092469B46884606469F
:100EB000814640241BE0284641464746224600F032
:100EC00042F853465A46C01A914110D3114618466B
:100ED000224600F029F82D1A67EB01084F462246FA
:100EE0000120002100F020F817EB00094E41201EE0
:100EF000A4F10104DFDC484631462A464346BDE8FA
:100F0000F09F0000064C074D06E0E06840F001034A
:100F100094E8070098471034AC42F6D3FFF70CF979
:100F20003014000850140008202A04DB203A00FA8C
:100F300002F1002070479140C2F1200320FA03F330
:100F4000194390407047202A04DB203A21FA02F02E
:100F50000021704721FA02F3D040C2F120029140F3
:100F600008431946704700000FB4054B10B503A99C
:100F7000044A029800F018F810BC5DF814FB000059
:100F8000B30200081800002002E008C8121F08C1C0
:100F9000002AFAD170477047002001E001C1121FFA
:100FA000002AFBD1704700002DE9FF4F8DB09B4612
:100FB0000F460446002638E1252801D00F9959E054
:100FC0000025641C9D49A84601222378203B02FA93
:100FD00003F0084202D00543641CF6E720782E286F
:100FE00017D114F8010F45F004052A280ED06FF030
:100FF0002F022078A0F1300109290AD808EB8801D6
:1010000002EB410100EB0108641CF2E757F8048B86
:10101000641C20786C280DD004DC4C2812D06A287F
:1010200011D104E074280DD07A280CD10AE045F4DF
:10103000001507E0617845F48015814202D1641CF7
:1010400005F58015641C2278692A46D008DC002A40
:1010500070D0582A69D0632A11D0642A08D13CE0A4
:10106000702A69D0732A14D0752A5CD0782A5CD093
:101070000F9910465A46904706F10106D4E017F83A
:10108000040B8DF8000000208DF80100E9460120D6
:1010900003E057F8049B4FF0FF3069074FF000055D
:1010A00001D40AE06D1C45450DDA8542FADB19F8DA
:1010B00005100029F6D106E06D1C8542FCDB19F80D
:1010C00005100029F8D12E4404E019F8010B5A4606
:1010D0000F9990476D1EF8D2A6E00A200021CDE9B5
:1010E0000801C5F3025002280BD001CFC117002917
:1010F0000EDA4FF0000CD0EB0C006CEB01012D234D
:1011000009E007F1070727F00707F7E80201EEE714
:101110002B0504D52B238DF82830012330E0EB0775
:101120002ED02023F7E70A2000E010200021CDE98F
:10113000080109E07DE0FFE71020002145F00405EB
:10114000CDE908014FF00808C5F3025002281BD072
:1011500001CF00214FF0000A2B0712D5702A19D0B9
:10116000DDE908C38CF0100C5CEA030C09D150EAED
:10117000010306D030238DF828308DF82920022372
:101180009A46582A10D00AE0FF1D27F00707F7E813
:101190000201DFE740228DF828204FF0010A28A243
:1011A0000DF120090B9209E02AA2F9E7DDE90823F5
:1011B000FFF776FE0B9B9B5C09F8013D50EA0102AC
:1011C000F4D1ADEB090000F120000890680701D4CC
:1011D0004FF001080899884502DDA8EB010000E006
:1011E00000208046002506E00AA85A46405D0F9977
:1011F0009047761C6D1C5545F6DB04E030205A46BE
:101200000F999047761CB8F10001A8F10108F5DCB0
:1012100005E019F8010B5A460F999047761C08997A
:10122000481E08900029F4DC641C207800287FF414
:10123000C3AE11B03046BDE8F08F000009280100B0
:10124000303132333435363738396162636465663C
:1012500000000000303132333435363738394142FE
:101260004344454600000000211000006330422046
:10127000A5508440E770C6604AA129918CC16BB12A
:10128000CEE1ADD13112EFF1522273329442B55218
:10129000D662F77218833993BDD35AA3FFF39CC368
:1012A0006224DEE320044334C774E6648554A44416
:1012B0004BB56AA509952885ACC5CFF553368DD5B4
:1012C00011167226D7763006B44695567AA75BB7C4
:1012D00038871997FEE7DFF7C448BCC78668E5582A
:1012E0004008A77802286118EDD9CCC9AFF98EE97A
:1012F000699948892BB90AA9B77AD44A711A966AAA
:10130000333A500AFDDB122A9EEBBFFB588B799BC8
:101310001AAB3BBB877CA66C222CC55C600C033CE3
:10132000AEED411CECCD8FFD0BBD2AAD499D688D06
:10133000B66E977EF44ED55E511E322E9FFF700E14
:10134000DDDFBEEF1BBFFCCF788F599FA98188914D
:10135000EBA1CAB12DC10CD180106FE1C230A10048
:101360000450E320467025409893B983DAB3FBA379
:101370001CD33DC35EF37FE3F32290123542D23299
:1013800077621452EAB556728985A8954FE56EF5D5
:101390000DC52CD5C324E2346674810424544764FB
:1013A000DBA705449987FAB77EF75FE73CD71DC7EF
:1013B000F236D326B0169106154676764CD93456B9
:1013C0000EF96DC9C8992FE9ABA98AB96548445887
:1013D00027680678E108C0187DCBA3283FEB5CDBCB
:1013E000F98B1EFBBBABD89B545A754A167A376AE9
:1013F000D01AF10A923AB32A6CDD0FEDAABD4DCD99
:10140000E89D8BAD267CC98D454C645C832CA23C49
:10141000C10CE01C3EFF1FEF9BAF7CDFD98FBABF32
:10142000176EF89F554E367EB23E932EF01ED10EAB
:1014300050140008000000201C000000880F000865
:101440006C1400081C00002004020000980F000823
:101450000000000000000000010203040102030478
:0C1460000607080902040608000000004E
:0400000508000147A7
:00000001FF
