:020000040800F2
:1000000000040020470100089D0100089F0100082E
:10001000A1010008A3010008A501000800000000DC
:10002000000000000000000000000000A701000820
:10003000A901000800000000D3170008AD01000866
:1000400067010008670100086701000867010008F0
:1000500067010008670100086701000867010008E0
:1000600067010008670100086701000867010008D0
:1000700067010008670100086701000867010008C0
:1000800067010008670100086701000867010008B0
:1000900067010008670100086701000867010008A0
:1000A0006701000867010008670100086701000890
:1000B0006701000867010008670100086701000880
:1000C0006701000867010008670100086701000870
:1000D0006701000867010008670100086701000860
:1000E0006701000867010008670100086701000850
:1000F0006701000867010008670100086701000840
:10010000670100086701000867010008670100082F
:10011000670100086701000867010008670100081F
:10012000670100086701000867010008670100080F
:10013000DFF80CD001F0C0FB004800477501000853
:1001400030100020704708488047084981F308882C
:1001500007480047FEE7FEE7FEE7FEE7FEE7FEE7AB
:10016000FEE7FEE7FEE7FEE745010008301000204D
:100170003101000810B500F007FB00F04CFC04232F
:10018000044A0021044800F061FF00F051FD002006
:1001900010BD000088010020270800087047FEE716
:1001A000FEE7FEE7FEE770477047704710B500F0C6
:1001B000BFFC00F083FDBDE8104000F0C3BC0000B0
:1001C000884A10B5811A1315D41490422ED00DDC34
:1001D000854940181CD0984221D0A0423BD1012132
:1001E000102000F023FA002110200DE0994224D0C5
:1001F000A14229D0B1F5406F2DD101210C0220463A
:1002000000F014FA00212046BDE8104000F00EBABC
:100210000121042000F00AFA00210420F4E7012162
:10022000082000F003FA00210820EDE7012120203A
:1002300000F0FCF900212020E6E70121402000F039
:10024000F5F900214020DFE70121802000F0EEF9E0
:1002500000218020D8E710BD10B50121084600F02C
:10026000E5F90021BDE81040012000F0DFB9F0B54C
:10027000CC78002204F00F03E40601D58C782343E8
:100280000C784FF00F0C4FF0010EDCB105680E88B2
:100290000EFA02F42640A64210D196000CFA06F798
:1002A00025EA070703FA06F5CE783D43282E02D04B
:1002B000482E02D002E0446100E00461521C082A8A
:1002C000E5D305600A88FF2A1CD94468002202F1A0
:1002D00008060EFA06F50E882E40AE420ED19600A4
:1002E0000CFA06F7BC4303FA06F7CE783C43282EF7
:1002F00000D14561CE78482E00D10561521C082AF4
:10030000E5D34460F0BD4FF6FF710180022181709A
:100310000421C17070470246002092680A4200D052
:1003200001207047806880B2704702460020D26882
:100330000A4200D001207047C06880B27047016156
:100340007047416170470AB1016170474161704770
:10035000C160704741F4803282618161826181694C
:1003600080697047214B10B51A684FF6807422409F
:1003700042EA00100843186010BD1D49C86170476B
:10038000F0B51A4D6B68440D260184B2C0F30157D5
:10039000B440C0F30342032F05D0C0020AD50320A6
:1003A0009040834307E0686823F0706220F070603B
:1003B000686002E0A34343F0706201B122436A60C7
:1003C000F0BD10B58A0721F003040849120F21443B
:1003D0000F238C6893409C438C608B689040034350
:1003E0008B6010BD0014014000F8FEBF000001400A
:1003F00000002042A448016841F001010160416809
:10040000A24A114041600168A14A1140016001689F
:1004100021F480210160416821F4FE014160002146
:100420008160704798490A6822F480320A600A683D
:1004300022F480220A60B0F5803F07D0B0F5802F0B
:1004400003D1086840F4A02008607047086840F4B1
:100450008030F9E70346002059098B4A01290AD068
:1004600002290AD0516A03F01F02012393400B4274
:1004700000D0012070471168F5E7116AF3E718B55D
:1004800000204FF4A06400903120FFF7E3FF0099B3
:10049000491C009108B9A142F6D13120FFF7DAFFDB
:1004A000002800D0012018BD774A116821F0F8011A
:1004B00041EAC00010607047764908607047724B8F
:1004C0005A68084322F47C121043586070477149FF
:1004D000086670476C4A516821F00301014351607E
:1004E00070476948406800F00C007047664A5168E0
:1004F00021F0F001014351607047634A516821F4D3
:10050000E0610143516070475F4A516821F46051D6
:1005100041EAC000506070475B4A0029517A01D01F
:10052000014300E08143517270475A49D831086055
:100530007047554A516821F440410143516070476A
:100540005149002281F8202081F82020012802D082
:10055000042802D1052081F8200070474E49086028
:10056000704749490A6A02430A6270474A49443956
:100570000860704730B5444A5168484B11F00C018F
:1005800003D0042901D0082901D0036011E051688B
:10059000022301F4701103EB9141536813F4803F7F
:1005A00002D053689B0301D53D4B00E03B4B5943C0
:1005B000016051680F2303EA11113A4B5C5C01683A
:1005C000E14041605468072505EA14241C5D21FAC6
:1005D00004F48460546805EAD4241B5DD940C160EA
:1005E0005268032303EA92322E4B1B1F9A5CB1FB25
:1005F000F2F1016130BD244A0029516901D0014363
:1006000000E08143516170471F4A0029916901D080
:10061000014300E08143916170471B4A0029D16981
:1006200001D0014300E08143D1617047164A00299F
:10063000D16801D0014300E08143D1607047124A84
:100640000029116901D0014300E081431161704725
:1006500011494039086070470E49C86470470A491B
:10066000C87170470848416A41F080714162704723
:10067000054A0146002092680A4200D001207047D6
:100680000149887270470000001002400000FFF826
:10069000FFFFF6FE000042428004424200127A0050
:1006A00000093D00040000200CB5002232480092F1
:1006B0000192016841F4803101604FF4A063016848
:1006C00001F4003101910099491C0091019911B97F
:1006D00000999942F3D10168890333D50121019131
:1006E00026490A6842F010020A600A6822F00302F2
:1006F0000A600A6842F002020A604168416041688B
:100700004160416841F480614160416821F47C119D
:100710004160416841F4E8114160016841F0807135
:10072000016001688901FCD5416821F00301416045
:10073000416841F0020141604168C1F38101022931
:10074000FAD10CBD0192FEE70B48016841F00101AE
:10075000016041680A4A114041600168094A11403C
:100760000160016821F480210160416821F4FE01EB
:1007700041600021816097E70010024000200240A4
:100780000000FFF8FFFFF6FE10B5FFF7DDFFBDE844
:10079000104000F01BB80B484FF47A710068B0FBB2
:1007A000F1F0B0F1807F0CD220F07F414FF0E020DB
:1007B000491E4161044AF021117000218161072125
:1007C00001617047FC18000823ED00E038B50121F5
:1007D0001020FFF719FF4FF40054ADF8004010202F
:1007E0008DF803000320064D8DF802006946284667
:1007F000FFF73DFD21462846FFF7A1FD38BD00006B
:1008000000100140FFF7C7FF4FF416740022234683
:100810001146104600F01BFF0022234611461046E9
:1008200000F015FFF2E7FFF7B6FF05230E4A00219F
:10083000AFF22F0000F00AFC0C4D4FF4005421469B
:100840002846FFF77EFD002264231146104600F083
:10085000FEFE21462846FFF772FD00226423114662
:10086000104600F0F4FEEAE7C80200200010014044
:10087000002204E0491C521C00F8013BD2B20B7864
:10088000002BF7D100210170104670472DE9F0418F
:100890000E460546140006D045B14EB1FA488078A0
:1008A00040B1112010E00020BDE8F08104200BE0F1
:1008B0000C2009E02878012808D0022806D0032857
:1008C00004D0042802D001201070ECE700F060FF93
:1008D000074605F10F013046FFF7CAFF05463846C7
:1008E00000F05AFF002020702846DDE70146002076
:1008F00002E0491C401CC0B20A78002AF9D17047B6
:100900002DE9F0410E4605461400CDD02DB136B18B
:10091000DD48807828B112200DE004200BE00C2087
:1009200009E02878012808D0022806D0032804D03E
:10093000042802D001201070B6E700F029FF074616
:100940003046FFF7D3FF0F2804D9384600F024FFC4
:100950000B2008E0314605F10F00FFF789FF38460C
:1009600000F01AFF002020709EE77CB5C74D0024E0
:100970006946204600F082FD58B955F8241041B16F
:10098000012906D0D1E9020200EB820088630198B8
:10099000C863641CE4B21F2CEAD97CBDBA4C02E0E7
:1009A000C82000F02FFE60780028F9D0642160692B
:1009B0000025B0FBF1F0606118B92570FF2000F050
:1009C0009CFD00F0E5FE216A2562A16100F0E4FED5
:1009D000D4E90510B0FBF1F0C0F16400207000F024
:1009E0002EFFFFF7C2FF642000F00CFEE9E7A64CE3
:1009F00000F0CEFE216A491C216200F0CDFE00F01D
:100A00001DFFF5E7002203E0491E00F8012B89B223
:100A10000029F9D1704770B586B000F00BFF9A4BF2
:100A200000245C639C70DC701C72DC71DC601C62F6
:100A30009C615C615C709C7103F11C012046401C50
:100A4000C0B201F8014B0428F9D31C715C718F48C6
:100A5000DC624FF4B46180305C62FFF7D3FF802129
:100A60008A48FFF7CFFF89480022803000F150010B
:100A70003F25416180F8405080F84140521C503081
:100A80005031D2B2112AF4D3446180F8405080F83A
:100A900041407E481C63803098624FF4A071A0F5FD
:100AA000B860FFF7AFFF7A48002200F12001047020
:100AB0004160C5730474521C2030203192B2092A5F
:100AC000F5D304704460C5730474714818618026BE
:100AD00000F55070CDE901066C4A03254FF6FF7012
:100AE0001F23121F00210090AFF2FD00CDE9034546
:100AF00000F0F9FA05AA67A11F2000F03FFC694841
:100B0000CDE901064FF6FE701E23674A00210090D2
:100B1000AFF27710CDE9034500F0E5FA05AA63A12D
:100B20001E2000F02BFC06B0BDE8704000F083BE34
:100B30005549C879012804D18878FF2801D2401C82
:100B40008870704770B5504CE079012822D100F0D0
:100B50001FFE0546A07820B1401E10F0FF00A070D7
:100B600013D1E07888B900F0D4F96079217988420E
:100B70000BD0464951F82010E162C86A401CC86297
:100B8000E068401CE06000F01FFE2846BDE87040B1
:100B900000F002BE70BD10B53B4CE07901280CD1CD
:100BA00000F0F6FDA17821B9E178FF2901D2491CB6
:100BB000E170BDE8104000F0EFBD10BD70B500F071
:100BC000E7FD314C0546A07898B9E07888B900F087
:100BD000A0F96079217988420BD02C4951F8201076
:100BE000E162C86A401CC862E068401CE06000F036
:100BF000E6FD2846BDE8704000F0CEBD10B5224CA1
:100C0000E079012813D100F0C3FDE17831B1491E2C
:100C100011F0FF01E17001D1A17819B1BDE81040D8
:100C200000F0BABD00F0B8FDBDE81040C6E710BD49
:100C300010B5154CE07900280CD100F06AF9607904
:100C40001249207151F82000E0626062BDE8104056
:100C500000F0A5BD10BD10B5022000F0D3FC00F0DF
:100C600097FD094C0021216200F096FD642000F000
:100C7000C9FC00F08DFD216A616101216170BDE850
:100C8000104000F089BD0000140000200C08002076
:100C9000CC02002075432F4F532D49492049646CE5
:100CA000650000000C0400200806002075432F4F4B
:100CB000532D494920537461740000002DE9F0411F
:100CC00000F0F9FD00F064FD984D696B491C696303
:100CD00000F062FDE87901283ED1687A01260027FC
:100CE00020B1012838D0022802D06F722C6B2FE07F
:100CF0006E72FBE700F04CFD218C31B3A1F10101D4
:100D00000904090C218420D194F8221011F0370F26
:100D100006D021F0370184F8221084F8236001E026
:100D200084F8237094F8221009070ED494F8281040
:100D3000AA797E4B1143A97194F826101C3394F8BC
:100D400027C05A5C42EA0C025A54646900F024FD40
:100D500094F824001F28CDD1A6E54FF48F7070477A
:100D6000704710B590F8262090F827408B18DA7A53
:100D7000A243DA7204D18A7A90F8280082438A72F8
:100D800010BD70B50146847A69484FF00006045DD5
:100D900001EB0405ED7A405D00EBC400C5B2654887
:100DA00050F8250020F8206F867826EA0206867023
:100DB000C370A0F1200032070BD45C4A90F82830B1
:100DC0009679334393711C3290F82760135D334357
:100DD0001355FFF7C6FF284670BD30B5534C00F1E0
:100DE0000B02616A41F81C0F8B7AC97A9D5C0D4336
:100DF0009D54616A827A26318B781A438272087810
:100E000004F11C034D781A5C2639AA431A5404D104
:100E100091F82810A0798843A07130BD0022827219
:100E20000B301146491CC9B200F8012B0429F9D333
:100E3000704705E011F8013B521E00F8013B92B2E9
:100E4000002AF7D170472DE9F05F9846DDE90ABA2C
:100E500091460D46064600F09BFC344FBC6A002CC0
:100E600053D00C34A168B96200F096FC44F80C5CD5
:100E700026760025A575E575A582C4F800B044E97D
:100E800002A90C98A080A4F80680F0086577A076E7
:100E9000012306F0070103FA00F26176227703FAD4
:100EA00001F2E27625612562A5626562E5623F2076
:100EB000256384F8340084F835500C3C204600F05B
:100EC000F9FC204600F0B8FC00F062FC014619482D
:100ED00040F82640386BC4E9050500B184613C63E5
:100EE0002634BA79A0781043B871104A20781C32A1
:100EF0006478135C23431354387A401C38720846D4
:100F000000F04AFC0020BDE8F09F00F045FC4220C4
:100F1000F9E70649064A01F11C038879105C1B5C5D
:100F2000D25C02EBC0004871704700001400002042
:100F3000001900080C0800202DE9F05F0C4605465A
:100F40001F2801D3FF2D01D11F2C02D32A20BDE879
:100F5000F09F00F01DFCDFF8FCC303465CF82400A2
:100F600020B1184600F018FC2820F0E7FF2D03D12F
:100F7000F948006890F824505CF825201AB3012A3B
:100F800026D0E108012000FA01F604F0070AF7B2C2
:100F900000FA0AF0C6B200204CF825004CF82420D4
:100FA00092F826C0DFF8B4E392F8275092F8289020
:100FB0001EF80C00284221D0A843DFF8A4B30EF895
:100FC0000C000AD00FE0184600F0E6FB2920BEE72F
:100FD000184600F0E1FB4320B9E79BF8000020EA47
:100FE00009008BF800009BF8000038438BF80000E4
:100FF0001EF8018048EA06080EF80180D06998B111
:1010000000EB0C0898F80BC03CEA050C88F80BC004
:1010100003D1857A25EA09058572857A3D43857273
:101020000844C57A3543C57202F8244F18469170BA
:1010300082F801A01771D67000F0AEFBC9480078A5
:10104000012801D1FFF7BAFD002080E72DE9FE431A
:101050001C4616460F4680461F2B02D92A20BDE8A3
:10106000FE8300F095FBC049097819B100F094FBAC
:101070003C20F4E7B74D55F8241019B100F08CFB73
:101080002820ECE7012145F8241000F085FB00231F
:1010900032463946404600F0D3FB00260146009612
:1010A00001963346324620460296FFF7CCFE0700F3
:1010B00007D000F06DFB45F8246000F06DFB38466A
:1010C000CDE7A84800780128F9D1FFF777FDF6E7CA
:1010D000D30707D0920705D50022002902D004C00B
:1010E000491EFAE770472DE9FF4F83B01C46DDE942
:1010F0001386DDE9119792468B461F2B03D92A20D0
:1011000007B0BDE8F08F00F043FB9749097819B1AB
:1011100000F042FB3C20F3E78E4D55F8241019B146
:1011200000F03AFB2820EBE7012145F8241000F0FD
:1011300033FB324639464846FFF7CAFF334652462C
:101140005946039800F07CFB0097CDE901860146E3
:101150004A462046109BFFF776FE060008D000F0B6
:1011600017FB002145F8241000F016FB3046C7E7B6
:101170007C4800780128F9D1FFF720FDF6E72DE93A
:10118000F04705467848007810B14020BDE8F08768
:101190001F2D04D005D3FF2D03D02A20F6E73E20D3
:1011A000F4E700F0F5FA0646FF2D03D16A4800681F
:1011B00090F82450DFF89C9159F825405CB1012C3F
:1011C0000ED094F82610654A94F82730505C984366
:1011D00050540AD00FE0304600F0DEFA4320D5E745
:1011E000304600F0D9FA3D20D0E75D4894F8282039
:1011F000017891430170E16911B12046FFF7B1FD1B
:101200004FF00008A4F82080584F84F8228084F81A
:1012100023803878FF2801D2401C3870304600F017
:10122000BBFAFFF79DFD00F0B3FA0646387808B127
:10123000401E3870204600F000FB4D490878401EE3
:10124000087049F82580A0694146A0B162694261F1
:10125000D4E90502826147480268626104603F2068
:1012600004F8400F3046617000F096FA3D4800786F
:10127000012806D007E060693F4A8161606910601B
:10128000E9E7FFF79BFC002080E710B504461F2824
:1012900004D00FD3FF2803D02A2010BD3E2010BD5C
:1012A00000F076FA2C49096891F8294000F074FAA8
:1012B000204610BD00F06CFA264951F8241041B1C7
:1012C00001290AD03F2281F8292000F065FA002088
:1012D00010BD00F061FA432010BD00F05DFA3D2022
:1012E00010BD2DE9F0410F46054614002FD01F2DEB
:1012F00003D9FF2D01D02A2006E027B11A48007833
:1013000020B1112000E00C20107020E000F040FA25
:101310000646FF2D03D11048006890F824500D4870
:1013200050F82510432571B101290CD040313846C1
:10133000FFF79EFA0546304600F02EFA0020207096
:101340002846BDE8F081304600F026FA25700020DE
:10135000F7E700000C0800203800002030000020D3
:101360001A0000201B00002016000020170000209B
:101370001C0000203C000020440000202DE9F0412A
:10138000884605461400DCD01F2D03D9FF2D01D05F
:101390002A2006E0B8F1000F05D09448007820B16B
:1013A00012201070CDE70C20FBE700F0F1F90646A3
:1013B000FF2D03D18E48006890F824508D484327B4
:1013C00050F825505DB1012D09D04046FFF78EFA47
:1013D0000F2809D9304600F0DFF941200DE03046F2
:1013E00000F0DAF92770ACE7414605F14000FFF75D
:1013F0003FFA304600F0D0F900202070A1E710B588
:1014000004461F2801D32A2010BD00F0C1F97949F4
:1014100051F8241059B101290DD091F82220130759
:1014200028D532F0080281F8222008D009E000F027
:10143000B3F9462010BD00F0AFF9432010BD0A8C6F
:101440001AB100F0A9F9002010BD6B4A26318B7843
:101450001478234313700A78684B49789C5C0C43DA
:101460009C5400F099F9664800780128EBD1FFF709
:10147000A5FBE8E700F090F9442010BD2DE9F0410C
:101480000E4604461F2803D9FF2C01D02A2058E716
:1014900046B100203060706000F07AF90146FF2C00
:1014A00002D005E009204CE75148006890F824403C
:1014B000504850F8240058B1012809D0027CD207C6
:1014C0000BD0D0E902570024084600F065F90AE085
:1014D000084600F061F9432033E7084600F05CF964
:1014E00045202EE7641C01CD0028FBD0A000306011
:1014F000381B80007060002023E770B504461F2869
:1015000004D005D3FF2C03D02A2070BD472070BD26
:1015100000F03EF901463648FF2C006805D090F8EF
:101520002400A04204D1012503E090F82440FAE70A
:101530000025304850F8240058B101280ED090F80A
:1015400026202E4C90F82760A35CB343A3540AD006
:101550000FE0084600F020F9482070BD084600F072
:101560001BF9432070BD244A90F828401378A34308
:10157000137010F8222F42F008020270084600F0A3
:101580000BF9012D01D1FFF719FB002070BD70B5DB
:101590000E4604461F2803D9FF2C01D02A2070BD17
:1015A0002EB100F0F5F80546FF2C02D005E0092029
:1015B00070BD0F48006890F824400E4850F8241081
:1015C00051B101290DD050223046FFF732FC284698
:1015D00000F0E2F8002070BD284600F0DDF8292078
:1015E00070BD284600F0D8F8432070BD16000020DA
:1015F000380000200C0800201A00002030000020D5
:101600001B00002070B504465B48007800281DD1FF
:10161000002C1BD000F0BCF803465848584D016818
:1016200091F8262091F82760A85CB043A85405D112
:10163000544891F828500278AA4302700C84184646
:1016400000F0AAF8BDE87040FFF7B8BA70BD70B5F9
:10165000494C24780CB1552070BD00B919B13B2913
:1016600002D9512070BD1AB13B2A02D9522070BD57
:101670002BB14FF47A74A34203D3532070BD54208E
:1016800070BD4FF47A756B43B3FBF4F34FF46164B0
:101690006043C1EB011100EB8100104400EB4001FD
:1016A000C1EBC01003EBC000040C80B2FFF7AAFF2F
:1016B0004FF4004507E02846FFF7A4FF2846FFF750
:1016C000A1FF641EA4B2002CF5D1002070BD10B59E
:1016D00004461F2801D32A2010BD00F059F82A49DA
:1016E00051F8241091B1012910D00A8C92B1002335
:1016F0000B8491F8222012F0370F0FD022F037021E
:1017000081F82220012281F8232009E000F044F82A
:10171000432010BD00F040F8502010BD81F8233068
:1017200091F82220120710D4164A26318B781478AB
:10173000234313700A78124B49789C5C0C439C54E9
:1017400000F02AF8FFF73AFA01E000F025F800204F
:1017500010BD10B500F01CF80C490C6800F01CF826
:10176000204610BD10B5044600F012F807490C6081
:10177000BDE8104000F010B816000020380000202E
:10178000300000201A0000200C0800204800002033
:10179000EFF3108072B6704780F3108870471D48D1
:1017A0004FF0FF010170002080F309881A480121E1
:1017B00001701A484FF08051016062B6FEE7174889
:1017C0004FF080510160704714484FF08051016024
:1017D000704772B6EFF3098028B1203880E8F00F27
:1017E0000F490968086000B50E4880475DF804EBB2
:1017F0000D480E490A78027009480D490A680260CE
:10180000106890E8F00F203080F309884EF0040E45
:1018100062B6704722ED00E01B00002004ED00E0FE
:1018200038000020B318000818000020190000201C
:1018300040000020704770477047704770477047FE
:101840004FF080731360131F1860A2F108006FF04F
:1018500001030360001F4FF012330360001F4FF0BD
:1018600003330360001F4FF002330360001F5B105F
:101870000360001F0160001F4FF011310160001F65
:1018800019010160001F4FF009310160001FD900EC
:101890000160001F4FF007310160001F4FF006315B
:1018A0000160001F4FF0053101609900001F0160C9
:1018B0007047704770477047064C074D06E0E06878
:1018C00040F0010394E8070098471034AC42F6D387
:1018D000FEF732FC001A0008201A000802E008C8CF
:1018E000121F08C1002AFAD170477047002001E09A
:1018F00001C1121F002AFBD17047000000A24A0458
:1019000000000100020001000300010002000100CC
:1019100004000100020001000300010002000100B8
:1019200005000100020001000300010002000100A7
:101930000400010002000100030001000200010098
:101940000600010002000100030001000200010086
:101950000400010002000100030001000200010078
:101960000500010002000100030001000200010067
:101970000400010002000100030001000200010058
:101980000700010002000100030001000200010045
:101990000400010002000100030001000200010038
:1019A0000500010002000100030001000200010027
:1019B0000400010002000100030001000200010018
:1019C0000600010002000100030001000200010006
:1019D00004000100020001000300010002000100F8
:1019E00005000100020001000300010002000100E7
:1019F00004000100020001000300010002000100D8
:101A0000201A0008000000204C000000DC1800082C
:101A10006C1A00084C000020E40F0000EC180008CD
:101A2000020406080000000001020304010203048E
:101A30000607080900000000000000000000000088
:101A40000000000000000000000000000000000096
:101A50000000000000000000000000000000000086
:0C1A60000000000000000000000000007A
:0400000508000147A7
:00000001FF
