:020000040800F2
:100000000004002047010008B9010008BB010008F6
:10001000BD010008BF010008C10100080000000088
:10002000000000000000000000000000C301000804
:10003000C501000800000000C7010008C901000850
:1000400067010008670100086701000867010008F0
:1000500067010008670100086701000867010008E0
:1000600067010008670100086701000867010008D0
:1000700067010008670100086701000867010008C0
:1000800067010008670100086701000867010008B0
:1000900067010008670100086701000867010008A0
:1000A0006701000867010008670100086701000890
:1000B0006701000867010008670100086701000880
:1000C0006701000867010008670100086701000870
:1000D0006701000867010008670100086701000860
:1000E0006701000867010008670100086701000850
:1000F0006701000867010008670100086701000840
:10010000670100086701000867010008670100082F
:10011000670100086701000867010008670100081F
:10012000670100086701000867010008670100080F
:10013000DFF80CD000F04EFB0048004785010008B6
:1001400018020020704708488047084981F3088852
:1001500007480047FEE7FEE7FEE7FEE7FEE7FEE7AB
:10016000FEE7FEE7FEE7FEE7450100081802002073
:100170003101000801B5009801E0401E0090002800
:10018000FBD108BD00F006FB00F020F84FF400564C
:10019000084CB5023146204600F0FBF82846FFF730
:1001A000E9FF3146204600F0F2F82846FFF7E2FF6B
:1001B000F0E70000001001407047FEE7FEE7FEE7B1
:1001C000FEE77047704770477047000038B501215F
:1001D000102000F040FA4FF40054ADF80040102019
:1001E0008DF803000320064D8DF80200694628466D
:1001F00000F05FF82146284600F0C9F838BD00003D
:100200000010014010B58B4C2215011B5300A04279
:100210002ED00DDC884940181CD0904221D0984245
:100220003BD10121102000F028FA002110200DE020
:10023000914224D0994229D0B1F5406F2DD10121AE
:100240000C02204600F019FA00212046BDE81040BB
:1002500000F013BA0121042000F00FFA002104205D
:10026000F4E70121082000F008FA00210820EDE75A
:100270000121202000F001FA00212020E6E70121E1
:10028000402000F0FAF900214020DFE70121802022
:1002900000F0F3F900218020D8E710BD10B501214E
:1002A000084600F0EAF90021BDE81040012000F006
:1002B000E4B9F0B5CA78002502F00F03D20601D5E3
:1002C0008A7813430A784FF00F0E12F0FF0F4FF0A9
:1002D00001021DD0D0F800400F8802FA05F6374021
:1002E000B74211D14FEA850C0EFA0CF724EA070742
:1002F00003FA0CF43C43CF78282F02D0482F02D0C9
:1003000002E0466100E006616D1C082DE4D3046044
:100310000C88FF2C1ED944685FF0000606F1080720
:1003200002FA07F50F882F40AF420FD14FEA860C33
:100330000EFA0CF7BC4303FA0CF73C43CF78282F96
:1003400000D14561CF78482F00D10561761C082E79
:10035000E4D34460F0BD4FF6FF710180022181704B
:100360000421C17070470246002092680A4200D002
:1003700001207047806880B2704702460020D26832
:100380000A4200D001207047C06880B27047016106
:100390007047416170470AB1016170474161704720
:1003A000C160704741F480328261816182618169FC
:1003B00080697047214B10B51A684FF6807422404F
:1003C00042EA00100843186010BD1D49C86170471B
:1003D000F0B51A4D6A68440D260184B2C0F3015786
:1003E000B440C0F30343032F05D0C0020AD5032055
:1003F0009840824307E0686822F0706320F07060E4
:10040000686002E0A24342F0706301B123436B6075
:10041000F0BD10B58A0721F003040849130F2144E9
:100420000F228C689A4094438C608A6898400243FB
:100430008A6010BD0014014000F8FEBF00000140BA
:1004400000002042A348016841F0010101604168B9
:10045000A14A114041600168A04A11400160016851
:1004600021F480210160416821F4FE0141600021F6
:100470008160704797490A6822F480320A600A68EE
:1004800022F480220A60B0F5803F07D0B0F5802FBB
:1004900003D1086840F4A02008607047086840F461
:1004A0008030F9E70246002053098A49012B0BD01E
:1004B000022B0BD0D1F8241002F01F02012393402D
:1004C0000B4200D0012070470968F5E7096AF3E79D
:1004D00018B500204FF4A06400903120FFF7E2FF30
:1004E0000099491C009108B9A142F6D13120FFF7CB
:1004F000D9FF002800D0012018BD76490A6822F0F3
:10050000F80242EAC0000860704775490860704709
:10051000704A5368084323F47C13184350607047B3
:100520006F49086670476B4A516821F00301014327
:10053000516070476748406800F00C007047654A9A
:10054000516821F0F001014351607047614A5168E0
:1005500021F4E0610143516070475E494A6822F42A
:10056000605242EAC000486070475A4A0029517AF6
:1005700001D0014300E08143517270475849C1F8EE
:10058000D8007047534A516821F4404101435160FB
:1005900070475049002281F8202081F8202001284E
:1005A00002D0042802D1052081F8200070474D496F
:1005B0000860704747490A6A02430A62704749491E
:1005C00044390860704730B542494A6812F00C035C
:1005D000454A03D0042B01D0082B21D002604A6881
:1005E0000F23424C03EA1212A35C0268DA40426015
:1005F0004B68072505EA1323E35C22FA03F38360C3
:100600004B6805EAD323E35CDA40C2604968032300
:1006100003EA9131231F595CB2FBF1F1016130BD56
:100620004A68022302F4701203EB92424B6813F4FF
:10063000803F02D04B689B0301D52D4B00E02A4B35
:100640005A43CBE7234A0029516901D0014300E016
:100650008143516170471F4A0029916901D00143CC
:1006600000E08143916170471A4A0029D16901D0A5
:10067000014300E08143D1617047164A0029D168E7
:1006800001D0014300E08143D1607047114A002945
:10069000116901D0014300E08143116170471149A4
:1006A0004039086070470E49C86470470949C871ED
:1006B00070470848416A41F0807141627047054ABD
:1006C0000146002092680A4200D00120704701498B
:1006D00088727047001002400000FFF8FFFFF6FE2E
:1006E000000042428004424200127A0004000020CE
:1006F00000093D000CB500213248019100910268CB
:1007000042F4803202604FF4A063026802F40032C7
:100710000092019A521C0192009A12B9019A9A42CF
:10072000F3D10268920333D50121009126490A686A
:1007300042F010020A600A6822F003020A600A68A6
:1007400042F002020A6041684160416841604168CC
:1007500041F480614160416821F47C11416041684D
:1007600041F4E8114160016841F080710160016865
:100770008901FCD5416821F003014160416841F0E5
:10078000020141604168C1F381010229FAD10CBD27
:100790000091FEE70B48016841F0010101604168EA
:1007A0000A4A114041600168094A1140016001682C
:1007B00021F480210160416821F4FE0141600021A3
:1007C000816097E700100240002002400000FFF81F
:1007D000FFFFF6FE064C074D06E0E06840F001031F
:1007E00094E8070098471034AC42F6D3FFF7A4FC16
:1007F000180800083808000802E008C8121F08C1DD
:10080000002AFAD170477047002001E001C1121F91
:10081000002AFBD1704700003808000800000020C3
:1008200014000000F80700084C080008140000201D
:100830000402000008080008020406080000000086
:0C0840000102030401020304060708097A
:0400000508000147A7
:00000001FF
